:020000021000EC
:10000000000004206D8A0100A58A01002D6E010008
:10001000A98A0100396E01003F6E01000000000056
:10002000000000000000000000000000DD1D0100D5
:10003000B18A010000000000771E0100871E010048
:10004000C1C201006D420100B78A0100B78A0100F8
:10005000B78A0100B78A0100B78A0100B78A010098
:10006000B78A0100B78A0100B78A0100B78A010088
:10007000B78A010055C40100B78A0100854201001A
:10008000B78A0100B78A0100B78A0100B78A010068
:10009000B78A0100B78A0100B78A0100B78A010058
:1000A000B78A0100B78A0100B78A0100B78A010048
:1000B000B78A0100B78A01000000000000000000BC
:1000C000B78A0100B78A0100B78A0100B78A010028
:1000D000B78A0100B78A0100B78A0100B78A010018
:1000E000B78A0100B78A0100B78A0100000000004A
:1000F00000000000B78A010000000000B78A01007C
:1001000010B5054C237833B9044B13B10448AFF351
:1001100000800123237010BDE80F002000000000C4
:100120002C3B020008B5034B1BB103490348AFF356
:10013000008008BD00000000EC0F00202C3B0200F6
:10014000154B002B08BF134B9D46A3F5803A0021A9
:100150008B460F461348144A121A0EF0D1FA0F4B71
:10016000002B00D098470E4B002B00D09847002062
:10017000002104000D000D48002802D00C4807F0B3
:10018000DDFB0DF0CBFD2000290003F0A5FE07F0FC
:10019000D2FB00BF000008000000042000000000A7
:1001A000353E0100E80F0020C0AD00203D79010080
:1001B000000000007047704730B5A1F11004002521
:1001C00000F00F02D3B2092ACCBF373330338B7320
:1001D000CD7302398C424FEA1010F1D130BD22208C
:1001E0007047000030B5012185B0192001F090FD65
:1001F0000121192001F0CAFD4FF080430022C3F80D
:100200005C2503F588334FF48032C3F8482301217D
:10021000C3F80823212001F07BFD0121202001F0FB
:1002200077FD0121212001F0B1FD0121202001F005
:10023000ADFD104B01221A600F4A1368002BFCD051
:100240000E4B0024C3F80045C3F800450C4B0FCB00
:100250006D4685E80F00234620464FF0FF3155F8E4
:1002600023200133042BC2F80005C2F86015F6D133
:1002700005B030BD04200040442100400020004073
:10028000D01C020038B54FF0805504462146D5F801
:10029000A800FFF791FFD5F8A40004F11001FFF7C3
:1002A0008BFF202038BD000072B64FF08043B02293
:1002B000C3F81C25BFF34F8F0549064BCA6802F4EB
:1002C000E0621343CB60BFF34F8F00BFFDE700BF79
:1002D00000ED00E00400FA0570470B6803604B680E
:1002E00043608B6883607047C3680BB19B68184795
:1002F00070470020704770B590F8343105461446B9
:10030000F3B90368DB69984704F47063B3F5407F81
:1003100004F0F0030CBF0721082104F00F02302B7A
:100320000CBF02230123012A08D0901E4242424101
:10033000A869BDE87040006804F016B90222F7E72A
:1003400070BD10B590F8343104462BB9A369186814
:1003500004F060F90028F9D010BD38B590F8345198
:100360000446A5B983695BB1186848B10368DB68C6
:100370009847A3691D600421A06907F0F5FCA561F9
:100380000023C4F82431C4F82831C4F82C3138BD16
:1003900013B590F8343104466BBBA369186804F0B8
:1003A000FBF840B306F09CFFA369186803680122BC
:1003B0005B690DF107019847D4F82C31B3F5807FC4
:1003C00016D0D4F82C31B3F5807F11D0D4F8243175
:1003D0009DF80720234483F82420D4F824310133E6
:1003E000DBB2C4F82431D4F82C310133C4F82C31F9
:1003F00006F08CFFD1E702B010BD00007FB590F889
:10040000343104460D46002B34D1866926B90420C8
:1004100007F096FCA0610660A369186860BB4FF402
:10042000867007F08DFC2B4694F9212094F920105A
:10043000064604F0A1FBA3691E6094F92220531C18
:1004400006D0A06994F923300068032104F0A2FBD0
:10045000A369186870B10A4B03930022094B0193FA
:1004600069460094029204F0F2F8039B13B19B6872
:100470006846984704B070BD294604F061F8DCE78F
:10048000E01C02009103010010B4D0E901340168BE
:100490006210E40701EB020048BF8A585DF8044B84
:1004A00048BFD3581847000008B590F834313BB125
:1004B000012001F0D3FB0648BDE8084001F028BA4E
:1004C00082691AB11368003318BF0123184608BDAA
:1004D0000818002070B504460D4601F019FA30B135
:1004E0002368294620461B6CBDE87040184770BD44
:1004F000A0F5A070EEE7000013B590F834318DF848
:10050000071004462BB1C9B20B48FFF7E3FF02B056
:1005100010BDA369186804F07DF80028F9D0A3691C
:100520001868036801221B690DF107019847013023
:1005300018BF0120EBE700BF081800202DE9F041AB
:1005400007468846164601F0E3F970B10024A6423A
:100550000CD9351B402D28BF402508EB04012A4645
:10056000384600F0BBFE2C44F1E704462046BDE8C7
:10057000F081A0F5A070E1E770B590F83431054640
:100580000E4614462BB11048FFF7D8FF044620460C
:1005900070BDAB69186804F03DF80028F9D0AB696C
:1005A0001868D0F8083101211B6B00F5847098475A
:1005B000AB691868036822461B69314698470130C9
:1005C00008BF0024E3E700BF0818002030B5044648
:1005D000C3B001F017F9D4F85832C3F580739842CC
:1005E0000546C4BFD4F85852C5F580752A4601ABFC
:1005F00002A9204600F05CFF019902AB6D1A0022AF
:100600001D44D4F85832B3F5807F19D08A4217D0F0
:10061000D4F85832B3F5807F10D0D4F85032A85CAB
:10062000234483F85001D4F850320133DBB2C4F8CC
:100630005032D4F858320133C4F858320132E0E76E
:1006400043B030BD38B5044600F0F0FA2046FFF75D
:10065000BDFFD4F85852204600F0F0FA284638BDC5
:10066000A0F5A070EEE7000010B590F83431044614
:100670002BB10648FFF7E6FF0446204610BD06F002
:100680002FFED4F82C4106F041FEF6E708180020B2
:1006900038B5044600F0CAFA2046FFF797FFD4F8B1
:1006A00058324BB1D4F85432234493F85051204679
:1006B00000F0C4FA284638BD4FF0FF35F7E7A0F543
:1006C000A070E5E710B590F8343104462BB10B4823
:1006D000FFF7DEFF0446204610BD06F001FED4F809
:1006E0002C313BB1D4F82801044494F8244006F09E
:1006F0000DFEF0E74FF0FF34F9E700BF08180020C7
:1007000038B5044600F092FA2046FFF75FFFD4F8B0
:100710005832A3B1D4F85432234493F85051D4F84A
:1007200054320133DBB2C4F85432D4F85832013BAE
:10073000C4F85832204600F081FA284638BD4FF000
:10074000FF35F7E7A0F5A070DAE7000010B590F8E4
:10075000343104462BB11148FFF7D2FF044620463E
:1007600010BD06F0BDFDD4F82C319BB1D4F8283172
:10077000234493F82400D4F828310133DBB2C4F8C1
:100780002831D4F82C31013BC4F82C31044606F052
:10079000BDFDE4E74FF0FF34F9E700BF0818002083
:1007A00008B54FF4807200210DF0AAFF0022C0F8B6
:1007B0000021C0F80421C0F8082108BD2DE9F04748
:1007C000194C1A4F276000254FF47A78C4E9015874
:1007D000202604F12400C4E90565E5614FF0010914
:1007E000FFF7DEFF284684F8349101F00BFA8246C9
:1007F000484601F007FA0E4CFF2384F82100C4E9B3
:10080000015804F124002760C4E90565E56184F816
:1008100020A084F8223084F82330FFF7C1FF84F849
:100820003451BDE8F08700BF3C110020F41C0200E9
:1008300004100020002070477047704710B5D0F8B2
:100840008C452CB1236820465B689847A468F8E77C
:1008500010BD38B5D0F88C450D4634B1236820461C
:100860009B6829469847A468F7E738BD0048704759
:10087000B41D020010B5054B0360044605F09FFC53
:10088000204605F0B5FC204610BD00BF341D020017
:1008900010B50446FFF7EEFF20464FF4B26107F0B3
:1008A00063FA204610BDF7B5D0F88C4505460E46D4
:1008B0000023A4B123683146DF680DF1030201ABC8
:1008C0002046B8479DF803100429034605D0019A35
:1008D000284604F0D9FE03B0F0BDA468E9E7019A08
:1008E0009DF80310F4E770B505460E4622B10021CD
:1008F000BDE8704004F0CABCD0F88C455CB12368F8
:1009000000221B6931462046984710B10121284634
:10091000EEE7A468F2E72146F9E770B5D0F88C4518
:100920000E46054600213CB12368314620465B69EE
:100930009847A4680146F6E72846BDE8704004F0F1
:100940009FBDF8B5D0F88C4505460E4617463CB11C
:10095000236820469B693A4631469847A468F6E7E3
:1009600028460121BDE8F84004F0E8BD70B500213B
:1009700086B0044605F080F80023ADF806302389E0
:100980008DF810301B0AA188E2888DF811304FF4E1
:10099000897540F20123ADF80450ADF812300225FC
:1009A00040F20313EF268DF807508DF809508DF8AB
:1009B0000C100125090A8DF80E20ADF81430120A2A
:1009C00004F10A038DF808608DF80A508DF80B00C9
:1009D0008DF80D108DF80F2001AD05AE1C462A468E
:1009E00003CAB24218605960154603F10803F6D1F4
:1009F00012881A80204606B070BDF8B5002406465D
:100A00000D46274630460EF05BFAA04207D9335D0B
:100A100005F8143005EB440301345F70F2E7400041
:100A200000F0FE00F8BD38B5D0F88C55044635B15D
:100A30002B6828461B6A984710B9AD68F7E7284627
:100A400040F20233A4F8483504F24A51FFF7D5FFCB
:100A500094F84835184484F8480504F5A96038BD71
:100A600040F2023310B500F20A510446A0F80835EE
:100A70000548FFF7C2FF94F80835184484F80805C4
:100A800004F5A16010BD00BF201D020040F202333A
:100A900010B50446A0F8C83400F2CA40FFF7F2FBD4
:100AA00094F8C834184484F8C80404F5996010BD5B
:100AB0002DE9FF4100238DF80A3090F888351B4A54
:100AC0008DF80830012301928DF809303222C023BD
:100AD0008DF80B308DF80C2001AB044600F54E78F4
:100AE00003CBC4F83803C8F8041088F80820D4F8F9
:100AF0008C6509258EB1336800211B683046984704
:100B0000478805F54E73093F00F109013A46E018A0
:100B10000DF0F8FC3D44B668ECE784F83A534046E3
:100B20002D1284F83B5304B0BDE8F0810902FFFFA9
:100B300073B504460D46164607F04AFE4FF480731F
:100B40000093014633462A46204604F05DFF024BDF
:100B50002360204602B070BD341D020010B5D0F8ED
:100B60008C350446A3B9C0F88C1594F888350B7100
:100B700094F888354A79134484F888350B68084618
:100B80005B6A9847238918442081012010BD1346D1
:100B90009A68002AFBD19960E7E71FB5044604F084
:100BA0002DFF0146684604F0B7F84021684604F07E
:100BB0002FF9D4F88C4534B123682046DB696946A7
:100BC0009847A468F7E7684604F0ADF804B010BD94
:100BD00010B50446FFF7E1FF2046BDE8104004F0E1
:100BE0007DBE000010B50D4C2378BFF35B8FDB0793
:100BF00012D4204606F0B0FE70B148F25A0242F21A
:100C000041310748FFF794FF204606F0C7FE054A2A
:100C10000549034806F08DFE014810BD74120020FE
:100C200078120020000200207508010010B5FFF7BF
:100C3000D9FF0368BDE810405B6F184710B5FFF798
:100C4000D1FF0368BDE810409B6F184710B5FFF750
:100C5000C9FF0368BDE81040DB6F184704F018BAFD
:100C600004F0D6B904F004BA704770477047436A7D
:100C700093F878007047D0F824017047012070473E
:100C800000487047081F02002DE9F04F044697B056
:100C90000F464B22002103A80DF032FDD4F8243179
:100CA000267994F80EA094F80C90002B06F101051B
:100CB000637B019314BF05200020EDB2002F40F0AC
:100CC000978040F20923ADF80C304FF48173ADF8F2
:100CD000103080238DF8133032238DF81430082320
:100CE0008DF815300B2301218DF816308DF8250075
:100CF00040F2022342F205404FF0240C4FF0090E5F
:100D000004274B22ADF818308DF8211002238DF8FE
:100D10002410ADF826004FF0100805208DF82A1099
:100D20008DF82D108DF82F104FF0030B06218DF844
:100D30000E208DF817608DF81A308DF81DE08DF8B3
:100D40001F608DF822308DF823308DF82B008DF840
:100D50002CC08DF831C08DF832308DF833108DF8FD
:100D600034008DF835C08DF81E708DF829808DF80F
:100D70002EB08DF830708DF8361007218DF83910AF
:100D80008DF8491044F20201ADF84C1040F20751C1
:100D9000ADF850101D349DF804108DF837608DF8B3
:100DA00038508DF83A008DF842508DF84A008DF891
:100DB00052108DF8533044F20306402340F60225CA
:100DC00003A920468DF83BA0ADF83C608DF83F802C
:100DD0008DF840E08DF84170ADF844508DF84B909F
:100DE0008DF854300DF08EFB204617B0BDE8F08F23
:100DF0000020FAE738B505460A4B45F8D03B0446D3
:100E0000FFF7F0FE05F0DBF9284604F09BF804F14B
:100E10007C0004F097F804F1700004F093F8204689
:100E200038BD00BFC81E020010B50446FFF7E2FF40
:100E300020464FF4947106F097FF204610BDFFF74F
:100E400005BF000010B5034B0360044603F0EAFE43
:100E5000204610BDFC1D020010B50446FFF7F2FF4E
:100E60002046282106F080FF204610BD10B5034B18
:100E70000360044603F0D6FE204610BDCC1D0200E0
:100E800010B50446FFF7F2FF2046342106F06CFF50
:100E9000204610BD10B5034B0360044603F0C2FEAC
:100EA000204610BDE41D020010B50446FFF7F2FF16
:100EB0002046382106F058FF204610BD38B51C4B9F
:100EC0000D461968C0F80F1099889B794375044640
:100ED000A0F8131040220221284603F08FFF402281
:100EE00020730221284603F08EFF40226073032105
:100EF000284603F083FFA073284603F015FF20B9AE
:100F0000AF220C490C4806F043F9002304F1850296
:100F1000C4E9322304F1D90284F8783084F88430AB
:100F200084F8D830C4F81C21C4F8203138BD00BF83
:100F3000181E0200A41E0200AF1E02002DE9F3419C
:100F400004460E461546FFF781FEF28823799A4241
:100F500037D1002D35D17778012F2ED1F378202B82
:100F600027D13289072A24D104F10F0804F116058C
:100F7000294640460DF094FAD0B1D4F81630C4F8A2
:100F80000F30207CE17B638BA4F8133001EB002150
:100F9000607CE57C237F009501EB00412568A07C07
:100FA000637501EB0061237D627D6D6B2046A84770
:100FB0003D46F378212B08BF0125284602B0BDE845
:100FC000F0810025F9E710B50446FFF73FFEFFF773
:100FD00009FE217B04F098FF04F18503C4F8C830B2
:100FE0000023C4F8CC3084F8843004F17C0003F092
:100FF0005EFF94F884302BB923682046DB6BBDE894
:101000001040184710BD000070B50446FFF71EFEE3
:10101000D4F820512DB140F2DD120F490F4806F0EF
:10102000B7F804F1D903C4F81C31FFF7DBFD617B8D
:1010300004F0C6FE84F8D850C4F8200104F1D000B2
:1010400003F035FF94F8D8302BB9236820469B6B0A
:10105000BDE87040184770BDA41E0200241E0200A7
:1010600010B4D0E9013401686210E40701EB02001A
:1010700048BF8A585DF8044B48BFD3581847000052
:10108000F0B5044687B002ADFFF7E0FD0026FFF79C
:10109000A9FDA17B009503234022059604F038FCAE
:1010A0002846FFF721F9FFF79DFD164B217B164FD0
:1010B00000954022CDE9033602230597029404F0FF
:1010C00027FC2846FFF710F9FFF78CFD0F4B617BDB
:1010D00000954022CDE9033602230597029404F0DF
:1010E00017FC2846FFF700F9FFF77CFD4023D4F8F2
:1010F0001C21617B04F004FE012084F8D80007B0B5
:10110000F0BD00BFC70F01000C1E02000910010056
:1011100038B502234371002383600C4B044640F82A
:10112000703B154603F0B6FE04F17C0003F0B2FEFE
:1011300004F1D00003F0AEFEC4F82451FFF752FDD5
:101140002146FFF70BFD204638BD00BFC81E020038
:1011500070B504460D46FFF779FD84F87850002DF0
:101160003ED194F8843033B1FFF73CFD217B04F08D
:101170009FFC84F8845004F1850304F17C0600256B
:101180003046C4F8C830C4F8CC5003F090FE304666
:1011900003F086FE28B9154915484FF4A27205F0F0
:1011A000F7FF94F8D83033B1FFF71CFD217B04F032
:1011B0007FFC84F8D85004F1D903C4F81C3104F141
:1011C000D00500232846C4F8203103F070FE2846DD
:1011D00003F066FE20B94FF4A77204490548DEE724
:1011E00004F17000BDE8704003F061BEA41E02006F
:1011F000321E0200431E020010B50446FFF726FD12
:1012000020460021BDE81040FFF7A2BF38B50D46CB
:101210000446FFF71BFD042D05D020460021BDE844
:101220003840FFF795BF38BDF8B5164604460D4661
:101230001F46FFF70BFD04233370EA8823799A4297
:1012400025D16978012922D1EA78212A08D0222AD9
:101250000BD0202A4FF000001BD13070163401E073
:1012600031700F343C600720F8BDAB8813F00103E8
:1012700008BF19462046FFF76BFFAB8803F0010358
:10128000E366AB8803F00203A366022333700020F9
:10129000EAE703233370E7E710B58AB00446FFF7A7
:1012A000C5FC684603F0B2FC0A4B0093694604F1A2
:1012B0007000099403F013FE2046FFF7BFFC064BB5
:1012C00000211A68684603F0EDFC6846FFF7BAFD96
:1012D0000AB010BDFC1D0200201E020070B58EB0C9
:1012E000154604460E46FFF7A1FC01A803F08EFC4C
:1012F0000E4B0C9501A9002504F17C000193CDE96A
:101300000A468DF8345003F0EAFD2046FFF796FCBC
:10131000074B29461A6801A803F0C4FC01A89DF8F0
:101320003440FFF7A3FD20460EB070BDCC1D020077
:10133000201E020010B50446FFF788FC94F88430A4
:101340007BB9D4F8CC3063B1FFF74CFCD4F8CC3087
:10135000217B04F1850204F073FD10B1012384F8B0
:10136000843010BD2DE9F8431E4604468946904658
:101370009DF82070FFF75AFC0023336094F8783012
:10138000E3B194F88430CBB9D4F8CC50C5F1400522
:10139000454528BF4546B8F1000F05D02A464946C5
:1013A000D4F8C8000DF0AEF8D4F8CC302B44C4F813
:1013B000CC30356017B12046FFF7BCFF2046BDE8B2
:1013C000F843FFF73BBCF0B50446406A90F878500C
:1013D00085B001262DB984F830503546284605B031
:1013E000F0BD04AB002743F8047DD4E90A1200964F
:1013F000FFF7B8FF0399E36AA26A5B1A0A44E36243
:10140000A26213B984F83060E8E7606AFFF792FFE0
:101410003D46E3E72DE9F0431C4691B09046064671
:101420008946FFF703FC002C08BF01AC4FF0000514
:10143000256002A80CBF0127002703F0E7FB104B33
:10144000029302A906F1D000CDE90D84CDE90B6924
:101450008DF83C708DF83D5003F041FD3046FFF7AC
:10146000EDFB084B29461A6802A803F01BFC02A8F2
:101470009DF83D40FFF70EFD204611B0BDE8F0831A
:10148000E41D0200201E020010B5D0F820310446F1
:101490006BB990F8D83053B9FFF7A4FB402304F19F
:1014A000D902617B04F02CFC012384F8D83010BDF4
:1014B00070B51E4604460023336094F87830084621
:1014C000EBB194F8D830D3B9D4F82051D4F81C112A
:1014D000954228BF15462A460DF014F83560D4F819
:1014E0001C31D4F820212B44551BC4F81C31C4F8FE
:1014F000205125B92046BDE87040FFF7C5BF70BD3B
:1015000037B50446406A90F878502DB984F83550C4
:101510000125284603B030BD02AB002243F8042D5C
:10152000D4E90A12FFF7C4FF0199A26A0A44A26231
:10153000226B13680B441360E36A01995B1A94F8F9
:101540003410E36209B9126802B91BB9012384F8A7
:101550003530DEE7606AFFF797FF0025D9E76FF0C7
:101560001500704700290CBF6FF01800002070476D
:10157000012070476FF0150070476FF0150070473D
:101580001120704770477047704703689B6C18477D
:10159000A0F5A070F9E7704770477047704703687F
:1015A000184710B50446012000F058FB94F8780065
:1015B00010BDA0F5A070F4E738B54FF0FF3201235D
:1015C000FF210B480B4D06F045FD00F035FB0446AE
:1015D00095F878301BB1012000F040FBF8E700F0EF
:1015E0002BFB001BC728F6D9BDE83840FEF75CBED0
:1015F000C01A00200818002007B502AB012243F8EA
:10160000041D1946FFF76AFE18B1019803B05DF892
:1016100004FB4FF0FF30F9E7A0F59470FFF7ECBF43
:1016200007B502A9002301F8013D0122FFF7F2FEF0
:1016300020B19DF8070003B05DF804FB4FF0FF30C8
:10164000F9E7A0F59470FFF7EBBF2DE9F8430446E6
:10165000884617461E46089DFFF7F8FAD4F87092A0
:10166000B9F1000F04D02B46324639464046C847F0
:10167000C4F86082C4F86472C4F86862C4F86C523A
:10168000BDE8F88370B50646FFF7E0FA06F51D746D
:101690000025D6F8B432AB4208D92046103454F8AD
:1016A000043C1BB11B6898470135F2E770BD000090
:1016B000B0F5966F03D10121014806F0ADBC70472B
:1016C000C01A002010B4D0E9013401686210E407A8
:1016D00001EB020048BF8A585DF8044B48BFD3585D
:1016E00018470000114B03F1780270B50360C0F891
:1016F000282103F1D802E8330446C0F82C21C0F8B1
:10170000403100F51D7600F52D75AE4204D0103D38
:101710002846FEF7E9FDF8E704F5947005F00CFAA9
:101720002046FFF767FB204670BD00BF481F020040
:10173000A0F59470FFF7D6BFA0F59670FFF7D2BF63
:1017400010B50446FFF7CEFF20464FF42E7106F089
:101750000BFB204610BDA0F59670FFF7F1BFA0F57A
:101760009470FFF7EDBF0000F7B5044615461F461D
:101770000E4607F02DF8BDF824300193BDF8203057
:1017800000932A463B4601462046FFF7C1FC002154
:1017900004F5947005F0A6F94FF47A73C4F8483153
:1017A000174B236003F178020025C4F8282103F1C8
:1017B000D802E833C4F82C21C4F84451C4F84031AD
:1017C0004FF48072294604F5A8700CF099FFC4F814
:1017D0005052C4F88052C4F85452C4F89052C4F81D
:1017E0005852C4F8A052C4F8B052C4F8B452C4F865
:1017F000705216B12046FFF74FFD204603B0F0BDF2
:10180000481F020038B50546FFF710FA95F8D830A2
:101810004BB9D5F82041402C28BF40242846FFF77B
:101820000DFA204638BD0024F8E7000070B50446E4
:1018300086B0FFF7FBF92D4BC4F870322046FFF756
:10184000FDF92B4B05932B4B039320460023029469
:101850000493FFF7EBF9D4F8B452032D13D804EB3B
:1018600005166B1C06F51D76C4F8B4323046FEF73B
:101870003BFD04EB0515059BC5F880321BB15B6889
:1018800002A9304698472046FFF7D8F902A8FEF78C
:101890002BFDBC2006F054FA0026174B03600546CA
:1018A00031460661403006F05BFC05F1540006F05D
:1018B000F7FB124B00934FF48072334628461821F1
:1018C00006F0E6FC0E4B05930E4BC4F85C5202A9E1
:1018D0002846CDE90236049606F0E6FC02A8FEF79B
:1018E00003FD2046FEF772FE06B070BDB116010082
:1018F000201F0200CD0501006C350200381F0200D8
:101900002C1F0200B9150100A0F5A070FFF78EBFD3
:1019100090F878007047000037B50F4C0F4D204607
:1019200006F070FB2A460E49204606F002F80D4CE0
:1019300042F212030122CDE90032002211464FF497
:10194000F8532046FFF710FF07492A46204603B008
:10195000BDE8304005F0EDBFC01A002000020020B5
:101960001F80010008180020E516010008B50BF0E3
:10197000FFFB2DE9F04F027D012A85B005460E469A
:1019800040F0908000214FF0FF3B04460B465F463D
:1019900094F804C048B2BCF1000F75D194F805C0AA
:1019A000BCF1000F70D1B7F1FF3F1BBF01335BB239
:1019B00001233846934201DD1A4683460131082946
:1019C00004F102045ED1002402EB0B03A146029352
:1019D000CB4502DC029B4B4559DC95F8058095F818
:1019E00004A04FEA28170AF00F03FAB25FEA2A1A96
:1019F000019208F00F0870D05FFA8AF1BAF1090F6E
:101A0000D4BF303157313046039300F0B0F8039B18
:101A10000444092B94BF03F1300103F15701304610
:101A2000039300F0A4F80444BAF1000F02D1039B21
:101A300003B94FB1092F019FD4BF30375737F9B2DF
:101A4000304600F094F80444B8F1090F94BF08F14F
:101A5000300108F15701304600F089F8B9F1070F5D
:101A6000044404D03A21304600F081F8044409F1DE
:101A70000109B9F1080F05F10205A9D1204605B009
:101A8000BDE8F08F074683E74FF0FF3096E7CB4580
:101A9000EDD1BBF1000FE5D13A21304600F067F8F7
:101AA0000444DFE700F1100700F11309002417F8E0
:101AB000011B0A22304600F087F82E21804630466E
:101AC00000F055F8B94540440444F0D10A22E97CBD
:101AD000304600F079F80444D0E7002B99D1A8E70C
:101AE00010B5054B03600446017510220021043037
:101AF0000CF006FE204610BD6420020070B5074DB4
:101B00000560837400259DF810300575456085607B
:101B1000C56001744274C37470BD00BF64200200CC
:101B200007B501210648FFF7DBFF002300931A46A3
:101B300019460448FFF7E2FF03B05DF804FB00BF5D
:101B4000D41A0020EC1A002070B5044608460D4651
:101B50000DF0B6F923680246294620465B68BDE8C9
:101B60007040184709B1FFF7EFBF08467047036898
:101B70001B68184770B58AB00D460AA9002301F802
:101B8000043D012A98BF0A22B5FBF2F402FB145669
:101B9000F3B2092E94BF30333733DBB2254601F858
:101BA000013D002CF0D1FFF7DDFF0AB070BD10B48D
:101BB0002AB903685DF8044B1B68C9B21847D2B252
:101BC0005DF8044BFFF7D6BFFFF7F1BF10B500F08B
:101BD00047F8FEF707FBFFF705F8FEF7F9FF4FF4AC
:101BE000E1310648064CFFF721FEFEF7E3FAFEF767
:101BF000E2FA002CFBD0AFF30080F8E708180020D1
:101C00000000000010B50446FEF7E9FA84423BBF2D
:101C10002401024B4FF0FF30185710BD0402002082
:101C200010B5044602F054FE204610BD10B504461F
:101C300002F04EFE204610BD07B50749684602F087
:101C400084FE4FF47A720023DDE900010BF0C0F846
:101C500003B05DF804FB00BF081B002006F0B0BA1B
:101C600008B5044802F03EFE0348BDE8084002F013
:101C700039BE00BF201B0020081B002038B50A4CCD
:101C80000A4D204602F09EFE2046094C09492A468C
:101C900005F04FFE204602F0A0FE2A4620460649E7
:101CA000BDE8384005F045BE201B002000020020A2
:101CB000081B00202D1C0100211C010008B590F913
:101CC00000305A1C04D121220E490F4805F060FA59
:101CD000012259B11F2B86BF03F01F030B494FF0A0
:101CE000A04102FA03F3C1F8083508BD1F2B86BFD7
:101CF00003F01F0305494FF0A04102FA03F3C1F8B6
:101D00000C35F2E7DC200200EA200200000300505C
:101D10002DE9F8431C4D4FEA001805EB0802044674
:101D2000D0680F4610B1012106F01EF82046FFF7DB
:101D300069FF8146012006F003F800260670494637
:101D4000044604F01AFB05EB0803012FDC6010D0F9
:101D500006D3022F12D0204602F0EAFA012103E056
:101D6000204602F0E5FA31462046BDE8F84302F08D
:101D7000EBBA2046BDE8F84302F0CEBA204602F0A6
:101D8000D7FA0321F0E700BF04020020F7B50646AA
:101D90000F46FEF724FA86421BD20F4D05EB0615BF
:101DA000EC687CB93046FFF72DFF0646012005F0B0
:101DB000C7FF00230446037001220097314604F058
:101DC000E3FAEC603946204603B0BDE8F040FFF787
:101DD00075BF03B0F0BD00BF040200201EF0040F69
:101DE0000CBFEFF30880EFF30980816911F8021C42
:101DF000002932D101B590E80F10E047BDE800504E
:101E00008CE80300244B93E80600914208BF70471A
:101E10001A6041B91EF0100F10D1204B186820F045
:101E2000010018600AE02CE9F00F1EF0100F08BF47
:101E30002CED108A81F822E0C1F838C0906B92F83E
:101E4000221061F0FF0E1EF0100F08BFB0EC108AD8
:101E5000B0E8F00F80F309887047114A136899427F
:101E6000FAD801B552F821C00FC8E047BDE80050CC
:101E7000CCF80000704701B501F02CFBBDE8014033
:101E8000EFF3098CBEE701B501F0E8FABDE80140C7
:101E9000EFF3098CB6E700003804002034EF00E0CF
:101EA000B821020008B5014630B96FF0030000F018
:101EB000EEF96FF0030008BD132001F09FFE30B96A
:101EC0004FF0FF3000F0E3F94FF0FF30F3E7002070
:101ED000F1E7000008B5EFF305834BB9EFF310838A
:101EE00033B9EFF311831BB9DFF814C000DF08BD6D
:101EF0006FF0050000F0CBF96FF00500F7E700BFC9
:101F0000A51E0100EFF310832BB9EFF31180003809
:101F100018BF0120704701207047000010B503462C
:101F200028B30468806860B110F0030202D1DB6856
:101F30000F2B25D86FF00801002002F0A5F8002033
:101F400014E0DB68002BF5D1104BD3F8900080B182
:101F500000F0F9FBB0B1012383700023C0E9023324
:101F6000F3220A4B02700A4A44605A6610BD0446C6
:101F7000EAE7D3F880000122102100F070FBE9E7C6
:101F80001346E9E76FF00401D7E700BF24040020FF
:101F90006520010010B5044610B10378F32B07D07B
:101FA00020466FF0030102F06FF86FF0030010BDE0
:101FB000836863B1204601F0E9FB00226FF0020163
:101FC00001F074FDA0680028F4D101F04DFC00235D
:101FD0002370A378DB0701D40020E8E7064BD3F891
:101FE0009000214610B100F0CBFBF5E7D3F880005C
:101FF00000F068FBF0E700BF24040020930710B551
:1020000002F0010422D400F10C0384B153E8000F64
:1020100000EA01028A4203D0BFF32F8F002005E0BF
:1020200020EA010243E8002404B1EFE710BD53E8C1
:10203000000F084203D1BFF32F8F002005E020EAF4
:10204000010243E8002404B1F1E7EFE7C06801EAC8
:1020500000031CB1994218BF0020E7E7002B08BF1E
:102060000020E3E7F8B58468054604B9F8BD94F8A4
:102070002320616AA7682846FFF7C0FF064638B1EB
:10208000204601F08CFB00223146204601F00EFD77
:102090003C46EAE7F8B50D4617461E46044620B111
:1020A0000378F32B01D1002907DA20466FF00301F2
:1020B00001F0EAFF6FF00300F8BDFFF79FFF002873
:1020C000FAD186B13146432001F098FD40B1074B6B
:1020D0005E692046314601F047FB756286F8237041
:1020E0006FF00100E8E76FF00200E5E7240400204C
:1020F0002DE9F041064620B10378F32B01D10029E8
:1021000009DA6FF00301304601F0BEFF6FF00305FE
:102110002846BDE8F08100F10C0353E8002F42EAA5
:10212000010543E8005000B1F7E7B4681CB9204648
:1021300001F09AFBECE794F82320616AD4F8088058
:102140003046FFF75BFF074678B194F823309B07D2
:1021500056BF656A054620EA0505204601F01FFBCB
:1021600000223946204601F0A1FC4446DEE700008B
:1021700008B50246EFF3058333B100206FF0050187
:1021800001F082FF002008BDFFF7BCFE0028F4D15B
:10219000DFF808C0104600DFF5E700BF1D1F010093
:1021A00038B502460D46EFF305834BB192B96FF097
:1021B0000301104601F068FF6FF00304204638BDAC
:1021C000FFF7A0FE0028F1D1DFF830C0104600DF95
:1021D0000446F3E71378F32BE9D1002DE7DB02F196
:1021E0000C0353E8001F41EA050443E8004000B136
:1021F000F7E7104601F0B6F9E0E700BFF120010073
:10220000F8B504460E4617461D46EFF3058343B165
:102210008CB920466FF0030101F036FF6FF0030028
:10222000F8BDFFF76FFE0028F2D1DFF82CC0204682
:102230002B4600DFF4E72378F32BEAD1002DE8D119
:10224000002EE6DB3A4631462046FFF7D7FE00284F
:1022500008BF6FF00200E3E79520010008B50246D1
:10226000EFF305833BB110466FF0050101F00CFF61
:102270006FF0050008BDFFF745FE0028F3D1DFF839
:1022800008C0104600DFF5E7951F01007047704752
:10229000EFF310832BB9EFF31180003818BF012042
:1022A0007047012070470000064BDA6A3AB1D069E6
:1022B0005B6C1BB11B69984228BF184670474FF0F2
:1022C000FF30F5E72404002070B5464C237A012B3B
:1022D00000F0858033B14FF0FF3001F0C9FE4FF0C0
:1022E000FF3070BD404DD5E90B61EB68E3652B8A8B
:1022F000A4F854303046AB68236400F099F908B173
:10230000C4F88060D5E90561304600F091F908B95C
:10231000D4F880606667D5E90761304600F088F937
:1023200008B9D4F88060A667D5E90961304600F0A5
:102330007FF908B9D4F88060E6676E6B3EB1D6E9E4
:1023400002233168304600F0DDF9C4F88460AE6BDA
:102350003EB1D6E902233168304600F0D3F9C4F823
:102360008860EE6B3EB1D6E902233168304600F05A
:10237000C9F9C4F88C602E6C3EB1D6E902233168ED
:10238000304600F0BFF9C4F890606E6C3EB1D6E9FB
:1023900002233168304600F0B5F9C4F89460AE6CA1
:1023A0003EB1D6E902233168304600F0ABF9C4F8FB
:1023B0009860EE6C3EB1D6E902233168304600F0F9
:1023C000A1F9C4F89C602D6D3DB1D5E902232968BF
:1023D000284600F097F9C4F8A0500123237200208A
:1023E0007FE700BF240400204821020070B5274C7D
:1023F000237A012B07D06FF0060001F039FE4FF071
:10240000FF35284670BD01F03BFC10B94FF0FF309E
:10241000F3E71F4AFF2382F8223092F8223063F05C
:10242000FF03DB4304D1D268C2F30222531C08E04D
:10243000D268B3FA83F3C3F12003C2F302229342BA
:10244000F4D9FE2202FA03F3124E114A12497068BF
:10245000DBB2D37701F068FE05460028D6D101F043
:10246000B7FE206101F0A0FE0C4801F08FF901F0E9
:10247000F3F93368DB074CBF0223032383F314888B
:10248000BFF36F8F02232372BBE700BF2404002039
:1024900000ED00E048210200871E010040040020FA
:1024A00010B50F4C237A022B13D101F085FE0123C6
:1024B0006372BFF34F8F0B4A5168C90042BF4FF0A0
:1024C00000615160A37204232372BDE81040FFF73E
:1024D000EBBE6FF0070001F0CBFD002010BD00BF88
:1024E0002404002000ED00E038B51D4C237A042BB5
:1024F000054634D1FFF7D8FEE26A85422CBF00F1D1
:10250000FF332B4612B1D069C01AD061626C12B190
:102510001069C01A1061E26813441544E360E3686F
:102520009D4213D102230020237201F09DF9002364
:102530006372BFF34F8FA27A22B1A372094B4FF09F
:1025400080525A60BDE8384001F02EBE0133E3608E
:1025500001F048F9236D002BE1D09847DFE738BD43
:102560002404002000ED00E0704738B504460D4615
:10257000FFF78CFE29462046BDE8384001F03ABD01
:1025800008B5FFF7F1FFEFF3058333B16FF00500F6
:1025900001F06EFD6FF0050008BDFFF779FE002821
:1025A000F4D1DFF808C000DFF6E700BFC922010060
:1025B00008B5EFF3058333B16FF0050001F058FD66
:1025C0006FF0050008BDFFF763FE0028F4D1DFF8C7
:1025D00008C000DFF6E700BFED23010008B5EFF308
:1025E00005832BB16FF0050001F042FD002008BD0E
:1025F000FFF74EFE0028F5D1DFF804C000DFF6E754
:10260000A124010008B50246EFF305832BB1BDE814
:1026100008406FF0050001F02BBDFFF739FE0028E0
:10262000F5D1DFF808C0104600DF08BDE92401003D
:1026300010B5034688B1084310F007000DD11729E3
:102640000AD9196008391022CC189C605A60585079
:1026500099684A60D860012010BD0020FCE770B581
:10266000034668B361B3032A2AD80F3121F0070665
:1026700000F10804214624684D68601A25F003051E
:10268000401B864203D920680028F3D170BD5D68E5
:10269000186835445D600344083B5868854288BF2C
:1026A0005D604B6832431BB94A6001F10800EDE7F9
:1026B00023F00303C818CC50426008600830E5E7F7
:1026C0000020E3E710B5034680B1C9B1A1F10804C9
:1026D00000F108020021A24209D1506820F0030451
:1026E0005868001B586041B95160012010BD106846
:1026F00011460028FAD00246EDE713680B60F4E7B4
:102700000846F3E730B5C0B189B1C2B1CBB10024FE
:10271000C0E9014202FB01F41D190160C36043617D
:1027200005611846013904D1A41A1951012108463E
:1027300030BD851805602846F4E70146F7E71146E5
:10274000F5E71946F3E710B5034608B9002010BDB8
:1027500000F1140252E8000F10B9BFF32F8F04E00C
:10276000016842E8001404B1F4E70028EED0043315
:1027700053E8002F511C43E8001404B1F8E7E6E7E2
:1027800030B5F0B1C3688B421BD803698B4218D9AE
:1027900000F114031A680A60BFF35F8F53E8002F3B
:1027A0000C689442F6D143E8001505B1F2E7043015
:1027B00050E8003F5A1E40E8002101B1F8E7002030
:1027C00030BD6FF00300FBE7EFF310832BB9EFF39D
:1027D0001180003818BF0120704701207047D1E9EF
:1027E000013223B19A608A681AB153607047C2629D
:1027F000F9E70363704700002DE9F84F8946074663
:1028000038B131B1B0FA80F1B9FA89F30B441F2B1A
:1028100008DC6FF00301002001F04CFC002420468E
:10282000BDE8F88F09F1030828F0030808F10C0847
:1028300008FB00FB002A5AD09468D2F800A0D2E925
:1028400004653CB1A10702D1D368332B0DD86FF0DA
:102850000801E0E7D368002BF9D126B3B20701D114
:10286000AB4522D96FF00901D5E7B6B9002DF9D1F2
:102870002A4B0022D86F5946FFF7F1FE0646002882
:1028800044D13DB1254BD3F8A0002146002838D0D3
:10289000FFF776FF6FF00401BDE7B307E2D1AB4568
:1028A000E0D800250DE0002DDCD11C4BD3F8A000B2
:1028B00000B3FFF748FF04460028EBD00125002EA7
:1028C000D6D0FA2323700023C4E90993C4E90B335B
:1028D000A36042463346A570C4F804A0394604F10B
:1028E0000C00FFF70FFF0D4B0D4A1A6797E7924652
:1028F0001646DAE7D3F8800001223421FFF7AFFE55
:10290000D9E7D3F88000FFF7DDFEC3E75A46002180
:102910000BF0F6FE45F00205D3E700BF24040020CB
:10292000B129010010B500F1280353E8002F12B9B6
:10293000BFF32F8F04E0511E43E8001404B1F4E705
:102940000AB9002010BDC06A01220028F9D0811CFC
:10295000D1E84F3FC1E8442F04B1F9E7DBB2002BC7
:10296000F0D08068F1E7036B30B5E3B1CD78002497
:10297000DA78AA420FD31A46C1E901248AB19160DC
:10298000A4B16160283050E8003F5A1C40E80021A3
:1029900001B1F8E730BD5A681C46002AECD0134656
:1029A000E6E7C162ECE7C1E90133C1620163E9E72F
:1029B000F8B5877804468FB3C568014600272846D6
:1029C000FFF70DFF277005F10C042046FFF7D8FE36
:1029D000AB68002B48D02046FFF7B5FE0446002820
:1029E00042D0284600F0D2FE3A460646394601F06B
:1029F0005DF8304600F026FF6A6A8168064604F1F9
:102A00000C000BF07FFDF9232370A770F368E370CF
:102A100021462846BDE8F840FFF7A5BF8568AB68AA
:102A2000002BF5D05B78832BF2D1284600F0AEFE68
:102A30003A460646394601F039F8304600F002FFC2
:102A400006466A6A806804F10C010BF05BFDF368CE
:102A50000BB1E2781A7000232370214605F10C00B7
:102A6000BDE8F840FFF78CBEF8BD00002DE9F0414D
:102A70000E4617469846044618B10378FA2B00D143
:102A800041B920466FF0030101F014FB6FF0030021
:102A9000BDE8F0818368BBB15B78832B14D100F073
:102AA00075FE01220546002101F000F8284600F0DD
:102AB000C9FE0546626A806831460BF023FDEB686B
:102AC00003B11F700020E3E704F10C00FFF73BFEA9
:102AD000054670B13146626A0C300BF013FDF923E4
:102AE0002B700023AB70EF7029462046FFF73BFFA9
:102AF000E8E7B8F1000F11D04146932001F07EF8CD
:102B000010B96FF00100C3E7064B2046596900F089
:102B10002BFEEFF30983C3E90267F2E76FF00200CF
:102B2000B6E700BF240400202DE9F0410F46164609
:102B30009846044618B10378FA2B00D141B92046D3
:102B40006FF0030101F0B6FA6FF00300BDE8F08109
:102B5000FFF7E8FE054600283AD001462046FFF779
:102B60003EFE626A05F10C0138460BF0CBFC0EB15B
:102B7000EB783370002704F10C062F70294630469D
:102B8000FFF7FEFDA3680BB90020DFE73046FFF733
:102B9000DAFD05460028F7D0204600F0F7FD39465B
:102BA0000646012200F082FF304600F04BFE626ACA
:102BB0008168064605F10C000BF0A4FCF9232B708C
:102BC000AF70F368EB7029462046FFF7CCFEDBE7D9
:102BD000B8F1000F11D04146832001F00FF810B971
:102BE0006FF00100B2E7064B2046596900F0BCFDCA
:102BF000EFF30983C3E90276F2E76FF00200A5E77D
:102C00002404002008B5064B08219A6ED86EFFF701
:102C1000F3FD044BD864B0FA80F04009404208BD8F
:102C200048210200240400202DE9F04106460F4609
:102C300090461C46EFF305834BB196B930466FF0D2
:102C4000030101F037FA6FF00300BDE8F081FFF7F0
:102C5000BBFD0028F1D1DFF84CC03046234600DF31
:102C6000F3E73378FA2BE9D1002FE7D0002CE5D138
:102C700006F10C00FFF767FD054680B1726A394620
:102C80000C300BF03FFCF9232846C5E901762B7088
:102C9000AC7085F8038000F065FC2046D5E76FF046
:102CA0000200D2E76D2A0100F8B504460F46164629
:102CB0001D46EFF3058343B18CB920466FF0030145
:102CC00001F0F8F96FF00300F8BDFFF77DFD002873
:102CD000F2D1DFF848C020462B4600DFF4E7237826
:102CE000FA2BEAD1002FE8D0002DE6D12046FFF7DD
:102CF00019FE054670B100F10C01626A38460BF00E
:102D000001FC0EB1EB7833702846EC6000F02AFC31
:102D10000020D9E76FF00200D6E700BF292B0100A1
:102D2000EFF310832BB9EFF31180003818BF0120A7
:102D3000704701207047000038B5044640B3D0E921
:102D40000025806860B110F0030302D1E1681B29FF
:102D500027D86FF00801002001F09CF9002016E050
:102D6000E368002BF5D11446104BD3F8940088B1DA
:102D7000FFF7E9FCB8B1012383700023C0E90233F7
:102D8000C0E90433F5220270C5704460037638BD93
:102D90000546E9E7D3F8800001221C21FFF75FFC1C
:102DA000E8E71446E8E76FF00401D5E724040020C3
:102DB000294B70B55D6904460E4635B96FF00701C1
:102DC00001F068F94FF0FF3070BD10B10378F52BBA
:102DD00007D020466FF0030101F05CF96FF00300AB
:102DE000F2E7037E53B9C0E90353EB6A436103B1D1
:102DF0001861EC62012323760020E5E7C278D10751
:102E00000ED5C168A9420BD1FF2B06D16FF00F017F
:102E100001F040F96FF00200D6E70133DBB2EAE7D8
:102E2000002EF7D093070AD5E06895F9203090F985
:102E300020209A4203DA80F8203000F0B9FC3146B5
:102E4000532000F0DBFE10B96FF00100BCE729460B
:102E5000204600F089FCF7E7240400202F4B5A6934
:102E600070B5044632B96FF0070101F013F94FF065
:102E7000FF3070BD10B10378F52B07D020466FF0FE
:102E8000030101F007F96FF00300F2E7037E33B9A5
:102E90006FF00E0101F0FEF86FF00200E9E7C16883
:102EA000914202D06FF00D01F4E7013BDBB20376F3
:102EB0000BB10020DDE743690BB10169196121699C
:102EC000E9B14B6192F92130D56AD5B982F8203049
:102ED000A36883B1204600F059FC06462A462946DD
:102EE00000F0E4FDF36A6361C4E9036503B11C61AA
:102EF0000123F4622376002000F0B6FCD9E7D36208
:102F0000E0E7E978890706D5A96821B191F9201091
:102F10008B42B8BF0B466D69D7E700BF2404002081
:102F200010B5044610B10378F52B07D020466FF09A
:102F3000030101F0AFF86FF0030010BD037EBBB1D9
:102F40006369C0680BB122691A612269BAB1536121
:102F500090F92120C36AA3B990F92030934203D09D
:102F600080F8202000F024FCA068B0B900F07CFCC0
:102F700000232370A378DB0718D40020DDE7C362A9
:102F8000E6E7D978890706D5996821B191F920102B
:102F90008A42B8BF0A465B69DDE7204600F0F6FBCF
:102FA00000226FF0020100F081FDDDE7064BD3F84F
:102FB0009400214610B1FFF7E3FBDEE7D3F8800071
:102FC000FFF780FBD9E700BF240400202DE9F04182
:102FD0000446002601270CB9BDE8F081E378D4F857
:102FE00014801B0712D5A36826767BB1204600F01B
:102FF000CDFB00220546114600F058FDEB6A6361E7
:10300000C4E9035603B11C61EC6227764446E2E74B
:1030100010B4C3789B071DD5C06890F92120C36AFE
:10302000DC78A40709D59C688C4208BF8C6824B161
:1030300094F92040A242B8BF22465B69002BEFD131
:1030400090F92030934205D080F820205DF8044BA1
:1030500000F0AEBB5DF8044B7047000008B50246B7
:10306000EFF3058333B100206FF0050101F012F892
:10307000002008BDFFF754FE0028F4D1DFF808C097
:10308000104600DFF5E700BF392D010008B5024604
:10309000EFF305833BB110466FF0050100F0FAFF36
:1030A0006FF0050008BDFFF73BFE0028F3D1DFF805
:1030B00008C0104600DFF5E7B12D010008B5024653
:1030C000EFF305833BB110466FF0050100F0E2FF1E
:1030D0006FF0050008BDFFF723FE0028F3D1DFF8ED
:1030E00008C0104600DFF5E75D2E010008B5024676
:1030F000EFF305833BB110466FF0050100F0CAFF06
:103100006FF0050008BDFFF70BFE0028F3D1DFF8D4
:1031100008C0104600DFF5E7212F0100EFF3108310
:103120002BB9EFF31180003818BF01207047012040
:1031300070470C30D0E85F3F13B9BFF32F8F04E026
:103140005A1EC0E8512F01B1F4E798B2003818BFF9
:103150000120704730B500F10C02C189D2E85F3F11
:10316000994202D8BFF32F8F04E05C1CC2E8554F90
:1031700005B1F3E7C0899BB2984294BF00200120BB
:1031800030BD000070B54FF6FE730D46411E9942EA
:10319000044601D8A84206D26FF00301002000F0D7
:1031A0007FFF002070BD12B39068166840B110F028
:1031B000030302D1D2680F2A0DD86FF00801EDE7A2
:1031C000D368002BF9D1104BD3F8980088B1FFF7E2
:1031D000BAFAA8B1012383700023F62283600A4B58
:1031E00002700A4A46608581C4819A66DAE716460B
:1031F000E9E7D3F8800001221021FFF730FAE8E771
:103200006FF00401CBE700BF24040020C1320100AD
:1032100010B5044610B10378F62B07D020466FF0A6
:10322000030100F03DFF6FF0030010BD83683BB168
:1032300000F0ACFA0122002100F038FC0020F4E795
:10324000FFF788FF0028F9D120466FF0100100F049
:1032500027FF6FF00200E8E710B5044610B10378CD
:10326000F62B07D020466FF0030100F019FF6FF036
:10327000030010BD836863B1204600F087FA002286
:103280006FF0020100F012FCA0680028F4D100F0F9
:10329000EBFA00232370A378DB0701D40020E8E7D2
:1032A000064BD3F89800214610B1FFF769FAF5E70D
:1032B000D3F88000FFF706FAF0E700BF24040020EF
:1032C000836810B504465BB1FFF733FF40B1204679
:1032D00000F05CFA0022BDE81040114600F0E6BBA9
:1032E00010BD000038B50D46044610B10378F62B2A
:1032F00007D020466FF0030100F0D2FE6FF003000C
:1033000038BDFFF716FF68B975B12946632000F094
:1033100075FC20B1064B2046596900F025FA6FF084
:103320000100EDE70020EBE76FF00200E8E700BFE7
:103330002404002010B50446EFF3058333B10020C8
:103340006FF0050100F0ACFE002010BDFFF7E6FEB7
:103350000028F4D1DFF808C0204600DFF5E700BF01
:103360008531010010B502460C46EFF3058343B1E9
:1033700082B910466FF0030100F092FE6FF0030077
:1033800010BDFFF7CBFE0028F2D1DFF824C01046B5
:1033900000DFF5E71378F62BEBD1002CE9D11046CE
:1033A000FFF7C7FE00280CBF6FF002000020E7E720
:1033B000E532010010B50446EFF3058343B184B94B
:1033C00020466FF0030100F06BFE6FF0030010BDAC
:1033D000FFF7A4FE0028F2D1DFF830C0204600DF5E
:1033E000F5E72378F62BEBD12046FFF7B3FE20B1AB
:1033F000204600F0B7F80020E9E720466FF0100102
:1034000000F04EFE6FF00200E1E700BF1132010054
:1034100008B50246EFF305833BB110466FF0050196
:1034200000F03EFE6FF0050008BDFFF777FE0028B4
:10343000F3D1DFF808C0104600DFF5E7593201008C
:1034400010B5D0E85F3F5A1C914200D80022C0E876
:10345000542F04B1F5E798B210BD000038B51C4CEC
:1034600000F0B0FEE3680133E36000F0BBF9002038
:1034700000F0FAF9236D03B19847226C32B3A369C7
:10348000E06BD969984202D0E36301B9DA61DA6985
:10349000C2B9237A022B19D1656ABDB1E36B95F9E4
:1034A000202093F920309A4210D1284600F077F975
:1034B000E06B00F08FF9284600F0CEF9236CE5634D
:1034C000EB6103E0013ADA61002AE2D038BD00BFC7
:1034D0002404002070B5224C04F1560504F15A066C
:1034E000B4F85410D5E85F3F13B9BFF32F8F04E051
:1034F0005A1EC5E8502F00B1F4E79BB25BB33046CB
:10350000FFF79EFFE36D53F8200020B30378F13BF3
:10351000082BE5D801A252F823F000BF4135010085
:10352000E134010047350100E1340100E1340100DC
:103530004B3501004F350100E134010053350100E6
:10354000236E9847CCE7636EFBE7A36EF9E7E36E63
:10355000F7E7236FF5E7BDE87040002000F084B97D
:103560002404002070B5164C0546B4F8541004F13C
:103570005602D2E85F3F994202D8BFF32F8F04E092
:10358000581CC2E8560F06B1F3E79BB2994205D822
:1035900029460220BDE87040FEF7E7BF04F158005D
:1035A000FFF74EFFE36D43F82050637A23B9054BD4
:1035B0004FF080525A6070BD0123A372FBE700BF39
:1035C0002404002000ED00E0EFF310832BB9EFF3AB
:1035D0001180003818BF0120704701207047037820
:1035E000F12B00D07047C068F9E7000010B5C4693E
:1035F000621CD0E904310CD103B1596142691AB19E
:1036000013610023436101E0074A13630023C36190
:1036100010BD1BB1DA6959612244DA614269002A9E
:10362000EED1014AD362F1E72404002010B50A4A22
:1036300090F9201001234370536A1C321BB193F997
:1036400020408C4205DCC0E90232906003B1D860B2
:1036500010BD1A469B68F1E724040020014B58690D
:10366000704700BF2404002010B500230380837836
:103670009A07044608D513F0100F016B0E4B0FD0BC
:10368000D3F88400FFF77CF8A378DB0712D50A4B48
:10369000D3F88800214638B1BDE81040FFF770B874
:1036A000586FFFF70FF8EFE7BDE81040D3F8800040
:1036B000FFF708B810BD00BF2404002008B500F0D3
:1036C000FFFCDFF810C000DF4FF0FF31002000F0FA
:1036D000D5FCFEE7153B0100C278D207034601D4B2
:1036E000FFF7C2BF0422054942700022C2604A6B44
:1036F000826002B1D0604B63704700BF2404002099
:10370000930710B502F0010422D400F1280384B11C
:1037100053E8000F00EA01028A4203D0BFF32F8F63
:10372000002005E020EA010243E8002404B1EFE7AD
:1037300010BD53E8000F084203D1BFF32F8F0020C4
:1037400005E020EA010243E8002404B1F1E7EFE7D5
:10375000806A01EA00031CB1994218BF0020E7E724
:10376000002B08BF0020E3E710B591F92020836803
:103770001BB193F92040944205DAC1E9023081601F
:1037800003B1D96010BD18469B68F1E70346806815
:1037900082689A6002B1D3600023C3607047C26838
:1037A0002AB18368936003B1DA600023C360704775
:1037B00010B5044664B12378F12B07D0FFF7EFFF73
:1037C00001462046BDE81040FFF7CEBFE468F1E7B0
:1037D00010BD00000123014643700148FFF7C4BF3C
:1037E0004004002038B5164DEC6A44B3E369013B50
:1037F000E36123BB6378732B06D009D8532B0BD01E
:1038000003F0DF03432B0DD12046FFF7E8FE09E06C
:1038100003F0EF03832BF6E72046FFF7E0FE214697
:10382000FFF7F6FB2046FFF7BAFFFFF7D3FF246947
:1038300024B1E369002BDDD000236361EC6238BD65
:103840002404002090F82230826B13F0100F14BF74
:10385000202060201044704702234370014B986180
:10386000704700BF2404002070B5124D04462E7A24
:10387000696990B9022E0FD16C6A6CB194F920205D
:1038800091F920309A4207DD2046FFF788FF08466D
:10389000FFF7CCFE6670AC6170BD022E05D190F9C9
:1038A000202091F920309A42F1DC2046BDE870409A
:1038B000FFF790BF240400202DE9F74F80460191C7
:1038C00040B96FF0030100F0D9FB0024204603B09B
:1038D000BDE8F08F002A00F0A88094689769D2E9CB
:1038E00000ABD2E9045644B1A10702D1D368432BFF
:1038F00023D86FF008010020E5E7D368002BF8D14A
:10390000002D32D1002F3ED11827002E41D1614B1E
:10391000D3F88800002800F08E80FEF714FF0446DC
:10392000002800F0A280002D40F0A9804FF001098E
:103930004EB158480022314687E0B5B91FBB002E72
:103940006ED1B9461827544A5248566DD0F8842093
:10395000002A79D01046FEF7F6FE054600287AD0F8
:1039600049F0100949F002031FE06A0700D116B9B7
:103970006FF00A01BFE7002F52D07B1E372B08D90A
:103980006FF00B01B7E77B1E372BF9D8002E49D01B
:10399000002516F00703EBD1404AA6F148019142F9
:1039A000E6D8002CB3D0002D62D0A3700023C4E968
:1039B0000233C4E90433C4E90633C4E90933C4E972
:1039C0000B35A6F1400340F2F1122B44C4E90E3846
:1039D0002280334B84F803B07FB2FD22C4F804A0E8
:1039E00084F8207084F82170628466632B602A4B0F
:1039F0001B685B0745D4A36B3422002118460AF0EC
:103A00007FFE284A234BC0E90D284FF08072C26325
:103A1000019A0262244A1A662046FFF725FF55E7FD
:103A20001827B6E774B9354671E792461546182748
:103A3000164693466BE7D3F8800001224421FEF737
:103A40000EFE6CE7B1467EE73146406FFEF707FE9B
:103A50000546002886D1B9F1000F06D00D4BD3F8EA
:103A60008800214630B1FEF78BFE6FF0040142E77B
:103A7000A9465EE7D3F88000FEF724FEF5E70123B0
:103A800093E726F00302443ACC21281D0AF038FEC1
:103A9000B1E700BF2404002048210200B7FFFF7FE8
:103AA000A52E5AE2BD360100D13A010038B50546CF
:103AB0001446FFF7C7FE01602846FFF797FD1CB1CB
:103AC000BDE83840FFF7D0BEBDE83840FFF782BE02
:103AD00010B54378332B04460CD1416A90F823206B
:103AE000FFF70EFE014628B120460022BDE8104037
:103AF000FFF7DCBF10BD10B50446806918B1002285
:103B00001146FFF7D3FF6378232B02BFA36800227F
:103B10009A6110BD70B50F4C267A022E18D1636AD7
:103B2000B3B16569E86AFFF751FA2846FFF7E3FF8A
:103B300004F11C00FFF72AFE4670A061EFF3098331
:103B4000AB63002363612846BDE87040FFF7C4BD46
:103B500070BD00BF2404002010B5044610B10378E6
:103B6000F12B07D020466FF0030100F087FA6FF0C9
:103B7000030010BD437803F00F03022B1ED0032B6C
:103B80002BD0012B2ED1FFF70AFEE06AFFF71EFAB9
:103B90002046FFF7B0FF6178022926D11548FFF7CC
:103BA000F5FD154B41709861EFF30982A263002285
:103BB0005A612046FFF790FD0020DAE70E4B1A7A93
:103BC000022A02D15B6A002BDFD16FF0020120468E
:103BD00000F054FA6FF00200CBE7FFF7E0FDFFF7CB
:103BE00005FDD2E76FF00201F2E70020FFF73CFE8F
:103BF000DFE700BF400400202404002038B51E4C3D
:103C0000237A022B024634D1606AA0B163695A70EC
:103C10004A1C16D1226B002172B94FF0FF30C3E964
:103C20000421D86159B10B611448FFF7AFFD02239D
:103C30004370A061012038BD11461269ECE723638F
:103C4000F2E7E26A002012B1D569A9420BD2C3E9BA
:103C50000420D96158B10361002AE5D0D0695361CD
:103C6000401AD061E0E71046491B1269EBE7E362B6
:103C7000F2E70020DFE700BF24040020400400201A
:103C800038B50D4C0D48A26D0D4D0021FFF714FE07
:103C9000636EA8625BB1984758B9E26DE96C206E1B
:103CA000FFF70AFEA864003818BF012038BD0120C4
:103CB000FCE70020FAE700BF48210200ED3F0100C9
:103CC0002404002010B50446EFF3058333B100202F
:103CD0006FF0050100F0D2F9002010BDFFF774FC71
:103CE0000028F4D1DFF808C0204600DFF5E700BF68
:103CF000B938010008B5EFF3058313B1054B5869D6
:103D000008BDFFF761FC0028F8D1DFF80CC000DF28
:103D1000F6E700BF240400205D36010010B504461C
:103D200000F0DAF9EFF305833BB120466FF00501AF
:103D300000F0A4F96FF0050010BDFFF745FC002866
:103D4000F3D1DFF808C0204600DFF5E7593B01005A
:103D500030B50C4D6B6C002213B11C698C420AD932
:103D6000C0E9022301611BB11C699860641A1C61DF
:103D70002AB1D06030BD1A46091BDB68ECE76864E5
:103D8000F8E700BF240400202DE9F041184D6C6CC9
:103D900054B323696E69013B23610127236913BB77
:103DA000E3680BB1A2689A606B640023E86C1A4662
:103DB00004F11801FEF738FF58B1D5E90583214613
:103DC00003206B61FEF7D1FB6B6913B9B04508BFE7
:103DD0000026E378012B09D161692046FFF7B8FF7F
:103DE0006C6C002CDAD16E61BDE8F0816770F7E78A
:103DF0002404002008B5FEF705FF18B9034B044A58
:103E00001A6508BD4FF0FF30FBE700BF2404002017
:103E1000893D010007B504464FF0FF330022694693
:103E20002046FEF741FF0028F6D1DDE90030984733
:103E3000F2E7000008B5094B094A1A60094B9B1AC2
:103E4000094A1360094B0A4A1A600A4B9B1A0A4A2C
:103E5000136000F051F800F069F800BFEC21002079
:103E600000FC032000000420E8210020A0A6002080
:103E7000C0AD002000FC03209CA600200E4838B5F1
:103E80000E4B03600B250E4B45601C24C460836001
:103E9000FFF7E4F80B4B18600B480C4BC460C0E90B
:103EA00000350B4B8360FFF7D9F80A4B1860BDE86B
:103EB000384009F033BF00BFB82100203022020093
:103EC000C8210020E4210020882100203D2202009A
:103ED00098210020B4210020FDF778BE024B4FF05E
:103EE000FF311868FFF7D2B8E4210020014B1868B1
:103EF000FFF7E4B8E421002008B505F0CDF9BDE8EE
:103F0000084000F011B87047704708B500F042F85B
:103F1000FFF7F9FFFFF7B2FFFFF7F6FF03F04AFBE9
:103F2000BDE80840FFF7D8BFFEF72ABB114C124B83
:103F300023614FF4004363614423E3600F4BA360AC
:103F4000182307B5A3610E480E4B236022460021BB
:103F5000FFF7B8FE034628B90B49009022460B48EC
:103F600003F030FBFEF724FB0023094900931A46B7
:103F7000F5E700BF58A200205822002010220020A0
:103F80000B3F0100472202004C2202001D0101806C
:103F9000682202001FB5064B0FCB6C4684E80F0069
:103FA0002046FFF75BF8034B186004B010BD00BF5C
:103FB000902202000C22002073B506460C461546DE
:103FC00003F0FAFA58B906342ABF064B064953F8EB
:103FD0002410002300933246284603F0F3FA02B07F
:103FE00070BD00BF54240200A823020008B500F0F1
:103FF000F3F8000007B50023411E0093024600239A
:10400000042919D8DFE801F003080C1014000C494A
:104010000C48012203F0D6FA0B490C480222F9E7BA
:104020000B490C480322F5E70B490C480422F1E741
:104030000B490C480522EDE70B490C48EAE700BFA5
:10404000A022020025010280C12202002601028076
:10405000E6220200270102801B23020028010280C1
:10406000562302002A0102809623020000010280EA
:10407000014A0146FFF7A0BF31010180014AFFF765
:104080009BBF00BF32010180014AFFF795BF00BF0F
:1040900037010180014AFFF78FBF00BF3301018064
:1040A00011F1110F02D0024AFFF786BF704700BF1F
:1040B00034010180014AFFF77FBF00BF3801018052
:1040C00010B5FFF717FE034B1B6813B1BDE8104096
:1040D000184710BD7CA20020024B1B6803B1184793
:1040E000704700BF7CA20020024B987A003818BFAE
:1040F000012070472404002008B5FEF76FFA074935
:10410000002203F0F1FAC31C04D9054905488B22AB
:1041100003F03EF8BDE80840FEF774BAE94001003C
:104120008F240200A1240200B0F57A7F38B50D4635
:1041300004D018491848322203F02AF802F044FD4E
:10414000041E13DB04F1604303F56143E02283F8AE
:1041500000232946204604F0AFFC204604F0B4FCBE
:1041600085420AD00B490D483F22E5E70C4B04F08D
:104170000F021344E0221A76EBE7002C07DB094A12
:104180006109012304F01F04A34042F821300020FC
:1041900038BD00BF8F240200CE240200DB240200C1
:1041A000FCEC00E000E100E008B503F025FABDE812
:1041B000084002F05FBD0000014B186802F02ABD04
:1041C000D0A50020014B186802F016BDD0A5002034
:1041D00008B502F0F9FC08BD08B5024C2368984701
:1041E000FCE700BFC804002003680BB1084618476D
:1041F00070470000044B0022C3E900229A601A6154
:10420000024ADA60704700BF80A20020E941010045
:1042100038B504460D46002100F8011B10220AF0B3
:104220006FFA6582204638BD08B542F60211024891
:10423000FFF7EEFF08BD00BF94A20020CB68C3606B
:104240000BB15B6818477047C36810B52BB90549B7
:1042500005484FF4FD7202F09BFFBDE810401B685B
:10426000184700BF2C25020037250200034B1A789F
:10427000034B53F8223003B118477047CC04002099
:10428000A8A20020074B1B785BB1074B0122C3F8A3
:104290000823064B5A78FF2A00D1FEE7044A128809
:1042A0005A707047C0A3002000F00040BCA200205C
:1042B000C2A30020F8B50546064655F8044B8CB954
:1042C0000D4F386818B14FF0FF31FEF7DFFE34684C
:1042D00024B9284603F0E4FE2C463560386808B15E
:1042E000FEF7ECFEAC4204D0044905488B2202F0F4
:1042F0004FFF2046F8BD00BF0C22002067250200BA
:1043000076250200036801221B6900211847036813
:1043100000221B691146184710B5044602F0E0FF61
:104320002046012104F038FFBDE8104002F0EEBF46
:1043300010B5044602F0D4FF2046002104F02CFF03
:10434000BDE8104002F0E2BF38B504460D4602F069
:10435000C7FF2946204604F0FDFEBDE8384002F0C4
:10436000D5BF70470246406830B490B1D2E90341EE
:1043700001F001052CB965B100EB610003681C591F
:1043800003E000EB6100002DF8D12346916830BCBA
:10439000184730BC7047000070B500F14C0690F92A
:1043A000DF2090F9DE100446304605F021FAD4E90A
:1043B00039530DB9DA070ED55A1004EB6300DB0749
:1043C00048BFA35894F8EC1048BF5D5994F9ED200C
:1043D00094F9EE30A847D4F8D810304605F01EFB0B
:1043E000224630460249BDE8704005F0F7BB00BFE9
:1043F0007F4701002DE9F0411F46D0F8E030044628
:104400000E4615462BB12849284840F2351202F0D5
:10441000BFFE274AC0E9392303681B68984784F820
:10442000EC6084F8ED5084F8EE70042E0CD8DFE8D0
:1044300006F0160311161A004FF0FF332A46012129
:1044400004F14C0005F0A0FB236820465B68BDE842
:10445000F04118472B464FF0FF320221F0E73B4670
:104460002A463146ECE70120013584F804010AD0E0
:1044700003F066FC0023054694F9ED10037001F08B
:104480007CFFC4F8F05094F9EE300133DCD0012009
:1044900003F056FC0022054694F9EE10027001F07C
:1044A0006FFFC4F8F450CFE7B2250200C125020027
:1044B000F54301002DE9F04198461E4B03601E4B69
:1044C000436000251D4B85600446C0E90555C0E9E1
:1044D00007550F461646C360858445634564A0F8BA
:1044E00048506C22294600614C300AF009F940F22C
:1044F0000113A4F8DC304FF47F43A4F8EC30FF2321
:104500002046C4E93558C4E93855C4E93E55C4F8D5
:10451000C45084F8DE7084F8DF60C4F8E85084F892
:10452000EE30C4F8005184F80451FFF735FF2046FF
:10453000BDE8F0811C26020099430100654301009B
:1045400070B50646044656F84C3B0D461B68984726
:104550003046294605F062FA2368C4F8D850204650
:104560005B68BDE8704018472DE9F0410546984664
:1045700055F84C3B04460E4617461B689847434681
:1045800028463A46314605F0C9FA236820465B685A
:10459000BDE8F0411847000038B50546044655F817
:1045A0004C3B1B689847284605F0CCFB94F8043137
:1045B0000546BBB1D4F8F430A3B193F900305A1CCE
:1045C00004D111491148212202F0E2FD012278B9FB
:1045D0001F2B86BF0E4903F01F034FF0A0419A40E6
:1045E000C1F80825236820465B689847284638BDEF
:1045F0001F2B86BF064903F01F034FF0A0419A40CE
:10460000C1F80C25EEE700BF05260200EA200200F3
:104610000003005038B50546044655F84C3B1B686E
:104620009847284605F0AEFB94F80431054643B19F
:10463000D4F8F00004F060FD002814BF002505F058
:104640000105236820465B689847284638BD036803
:104650002DE9F04105461B6816460F46984795F828
:10466000DC30340103B1AEB195F8DD300BB1012E71
:1046700010D0B8342C44BC4206D02046FBF734FEA0
:1046800039462046FFF7DAFD2B6828465B68BDE80F
:10469000F0411847B83402F023FE2C44FA68E3686E
:1046A00005F14C089AB10BB903F050F8A74206D0B7
:1046B0002046FBF719FE39462046FFF7BFFD0122D1
:1046C0003146404605F09AFA02F020FEDCE70BB1D5
:1046D00003F052F82046FBF707FE0022E260EFE706
:1046E00030B51B4B036085B000252A466946044659
:1046F0000395FFF7ACFF6846FBF7F6FD012269461C
:1047000020460395FFF7A3FF6846FBF7EDFD94F8FD
:10471000DC3013B994F8DD301BB104F14C0005F026
:1047200047F904F1C800FBF7DFFD04F1B800FBF71F
:10473000DBFD04F13800FBF7D7FD04F12800FBF79F
:10474000D3FD206A08B102F079F8204605B030BDEB
:104750001C26020010B50446FFF7C2FF20464FF4A6
:10476000847103F001FB204610BD4C3005F072BA95
:1047700010B54C300C4605F0AFFA204610BD00EBEA
:104780000110B83008B5C3680BB1FFF75DFD08BD77
:10479000036870B504461B680D46984794F8DC30F2
:1047A000AB422FD0BDB904F14C0602F099FD2A4668
:1047B0002946304605F022FAD4F8C430ABBB02F0EB
:1047C000A5FD002384F8DC3094F8DD30D3B9304601
:1047D00005F0EEF816E094F8DD304BB9A268636896
:1047E000511004EB6200D20744BF6258D358984777
:1047F00002F076FDD4F8C43053B902F087FD0123EE
:1048000084F8DC30236820465B68BDE870401847B8
:1048100004F1B800FFF718FD02F098FF0122002113
:1048200004F14C0005F0EAF9E7E702F0A5FFC6E75E
:10483000036870B504461B680D46984794F8DD3050
:10484000AB422FD0BDB904F14C0602F049FD2A4617
:104850000121304605F0D2F9D4F8D430ABBB02F0D8
:1048600055FD002384F8DD3094F8DC30D3B93046B0
:1048700005F09EF816E094F8DC304BB9A268636846
:10488000511004EB6200D20744BF6258D3589847D6
:1048900002F026FDD4F8D43053B902F037FD0123DD
:1048A00084F8DD30236820465B68BDE87040184717
:1048B00004F1C800FFF7C8FC02F048FF01221146CE
:1048C00004F14C0005F09AF9E7E702F055FFC6E75E
:1048D000437D10B504461BB1037D0BB102F04CFFC4
:1048E000204610BD13B5044601A801F0AFFF637D5B
:1048F00053B9237D0BB102F029FF206901F066FF57
:10490000C4E900010123637501A801F0A5FF02B00D
:1049100010BD37B504460D4601A801F097FF0023EE
:104920000022C4E900236B7D4BB1286901F04EFFE2
:10493000D5E90032C01A61EB0201C4E9000101A807
:1049400001F08AFF204603B030BD30B585B0044683
:104950000D4603A801F07AFF29466846FFF7D9FF04
:10496000D5E90221009B9B18019A03A842EB0102A2
:10497000C4E9003201F070FF204605B030BD13B528
:10498000044601A801F062FF206901F01FFF002228
:104990000023C4E90001C4E9022301A801F05CFF7F
:1049A00002B010BDD0B5002300260027C0E9006783
:1049B000C0E902670446016102754375FFF7DFFF36
:1049C0002046D0BD10B5044601F024FF0122014667
:1049D0002046FFF7E7FF204610BD10B5044601F062
:1049E000EDFC002201462046FFF7DCFF204610BD0B
:1049F00003681B681847000010B50446074B236086
:104A000000220023C4E9022300230846A161C4E96F
:104A10000433034901F068FE204610BD342602002D
:104A2000F149010007B5009000F10801806901F02B
:104A300098FE03B05DF804FB00F10801806901F005
:104A4000AABE002070476FF01C0070476FF01C007A
:104A500070476FF0150070476FF015007047012028
:104A6000704701207047002070470020704770B5E4
:104A700011F0010406460D4604D0FFF78DFD041E1B
:104A800018BF0124EB0605D53046FFF7C3FD08B17A
:104A900044F01004204670BDA0F58470FFF7E7BF16
:104AA00008B5FFF775FE002008BDA0F58470FFF77C
:104AB000F7BF08B5FFF7BCFE002008BDA0F5847065
:104AC000FFF7F7BF10B5034B03600446FFF708FE7E
:104AD000204610BD40260200A0F58470F2E700BF1A
:104AE00010B50446FFF7EEFF20464FF4867103F041
:104AF0003BF9204610BDA0F58470F1E72DE9F041A7
:104B000006460D461746C2B102F0E7FB80F00103EE
:104B100013F0FF0403D0336830461B68984705EB59
:104B2000070815F8011B3046FFF722FEA845F8D10B
:104B30001CB1336830465B6898473846BDE8F08161
:104B4000A0F58470FFF7DABF38B504460D4662B1B0
:104B500003681B6898472046FFF707FE2870236804
:104B600020465B689847012038BD1046FCE7A0F559
:104B70008470FFF7E9BF000010B50446FFF79AFC08
:104B8000034B23603C33C4F80831204610BD00BFFE
:104B9000402602002DE9F0411F46036804460D46F9
:104BA00016461B6898473B46204632462946FFF783
:104BB00021FC236820465B68BDE8F041184730B50A
:104BC000044685B002F08CFB04F108051022002198
:104BD000684609F095FD29466846FFF72FFB2846F1
:104BE000FBF782FBE0690023C4E9053308B103F059
:104BF000DDFA02F08BFB039B13B11B6868469847F4
:104C00006846FBF771FB05B030BD00000022044987
:104C10004260C0E905220160C2610284704700BFA2
:104C200014270200074B10B503608369044623B1C3
:104C300005490648262202F0ABFA0830FBF754FB80
:104C4000204610BD14270200E1260200ED260200D6
:104C500070B504460D4602F043FBA6691EB9BDE8D7
:104C6000704002F053BB04F10800FBF73DFB00234A
:104C70000122636184F82020E36184F82150A3615C
:104C800002F044FB21463046BDE8704000F039B9DF
:104C900008B103F00DBA02F023BB08B103F024BA47
:104CA00002F034BB2DE9F041044686B00E461746AB
:104CB00002F016FBA56902F029FB35B301AD002116
:104CC000284603F04DFA02F00BFBD4E9068323B12A
:104CD0000F491048392202F05BFAE56102F016FB39
:104CE000B8F1000F0ED03946284603F041FA48B912
:104CF0003046FFF7CDFF20460121FFF7A9FF3046E0
:104D0000FFF7CBFF284603F054FA06B0BDE8F08168
:104D1000E1260200FB2602000022C0E90122012256
:104D200001600273704770470346007B30B1D3E9DE
:104D30000020136898428CBF0020012070472DE9A5
:104D4000F04106680127054682F0010E07FA01F1DD
:104D5000002304366AB916F813400C4227D014F029
:104D6000300428D10233202BF5D14FF0FF30BDE8BD
:104D7000F08116F813400C4203D10233202BF8D1F6
:104D8000F3E704F03004102CF7D043F00100D5F81D
:104D900008C007FA00F818EA0C0F08D1202CE6D159
:104DA0004EEA030407FA04F414EA0C0FDFD00233CE
:104DB000202BCFD1D9E71846E9E770B50D4611464B
:104DC0002A4604461E46FFF7BAFF002802DA0020F2
:104DD000207370BD25686368420805EB8205E98889
:104DE00019446B7906FB031363600121A3688140BA
:104DF0000B4342EAC010A360C0B2EAE713460A467A
:104E00000121FFF7DABF13460A460021FFF7D5BF9D
:104E100038B50A4605460C460021FFF7EFFF22464B
:104E200028460021BDE83840FFF7EDBF0022C0E969
:104E30000022704770470068704700230B6043688A
:104E400013B90160416070471960FBE703460068D1
:104E500028B1026802B95A601A60002303607047E3
:104E600010B50468002223468B420ED10AB10B68AC
:104E700013608C4204BF0B68036043688B424FF0A1
:104E8000000308BF42600B6010BD002BFCD01A4627
:104E90001B68E9E710B50446FFF7C8FF204610BDC0
:104EA00008B5FFF7C8FFB0FA80F0400908BD70B53B
:104EB00005462846FFF7BFFF044678B150F8043C8A
:104EC000061F9B683046984740B12846FFF7BEFF53
:104ED00054F8043C3046DB689847EAE770BD70B58B
:104EE00004460D46FFF7A7FFAC610646291D204684
:104EF000FFF7A3FF26B92046BDE87040FFF7D7BFF4
:104F000070BD70B505460C46FFF795FF064604B127
:104F1000043421462846FFF7A3FFA64204D12846C1
:104F2000BDE87040FFF7C3BF70BD10B50446204612
:104F3000FFF781FF28B150F8043C0438DB6898473C
:104F4000F5E710BD10B50446FFF7EFFF2046FFF769
:104F500071FF204610BD7047704703689B6D18476E
:104F600070B586B0154B01930023ADF808308DF86D
:104F70000A3040F20123ADF8123040F2031390F8EA
:104F8000204341680289ADF8143000F10A038DF81E
:104F90000B400391ADF8102001AC05AE1D46224632
:104FA00003CAB24218605960144603F10803F6D1EF
:104FB00012881A80284606B070BD00BF1201000298
:104FC00000487047482A020000487047362A02000D
:104FD00000487047202A0200004870471A2A020041
:104FE00000487047122A020000487047FC2902005E
:104FF000036810B504465B6F9847D4F8EC02036869
:105000001B6F9847236820469B6FBDE810401847E8
:1050100038B5D0F83433012B044615D10025D4E936
:10502000C93000F0010243B972B1C4F8283304EB6F
:1050300060000268D3589847F1E7C4E9C95504EB0A
:105040006000002AF7D0F4E7D4F834332BB90649CE
:10505000064840F2C66202F09BF8013BC4F83433C4
:10506000BDE8384002F052B9412702004F27020044
:1050700008B5D0F834332BB90349044840F2CD6267
:1050800002F086F808BD00BF412702004F2702004A
:1050900010B5044602F024F9D4F834330133C4F8CF
:1050A00034332BB9034904484FF4D76202F070F847
:1050B00010BD00BF412702004F270200036837B52B
:1050C000DB6F0D460446984715F0700F01D12B0792
:1050D00006D100231049114800931A4602F072FAD3
:1050E0006B0003F01E0343EAD5118B1E182000FB52
:1050F000034393F831206AB1013900FB0140013AC2
:10510000043083F83120C36823B11B6803B0BDE8C5
:105110003040184703B030BD5B2702000401158002
:10512000036870B50446DB6F9847B4F8F8522B0A51
:10513000022B1FD0032B50D0012B04D12368204613
:105140001B6B984708B9002070BD236820461B6B75
:1051500098470578122DF6D1236820461B6B984797
:105160004378012BEFD12368C4F804531B6B20460E
:1051700098472CE02368EDB25B6B294620469847A0
:105180000028E0D0236829465B6B204698470378C7
:10519000092BD8D1236829465B6B20469847437872
:1051A000022BD0D1236829465B6B204698472368A1
:1051B00086785B6B294620469847C37846EA0326E3
:1051C0002368C4F804635B6B294620469847C4F8FB
:1051D0000003012084F80803B6E7EDB2052DB2D82C
:1051E000DFE805F0030D17212B35236820469B6B64
:1051F00098470378C4F8043323689B6BB7E72368A8
:105200002046DB6B98470378C4F804332368DB6BD4
:10521000ADE7236820461B6C98470378C4F8043335
:1052200023681B6CA3E7236820465B6C98470378D0
:10523000C4F8043323685B6C99E7236820469B6CB1
:1052400098470378C4F8043323689B6C8FE723687E
:105250002046DB6C98470378C4F804332368DB6C82
:1052600085E70B78DB0913700B78C3F34113537098
:105270000B7803F01F0393704B78D3704B889380A7
:105280008B88D380CB88138170470000036870B58A
:1052900004465B6F0D46984794F80C33022B05D0FB
:1052A00009490A4840F23D1201F072FF084BC4F868
:1052B00024330023C4F82833236884F8105320468D
:1052C0009B6FBDE870401847412702007A27020013
:1052D000A1570100036810B50446DB6F984794F8A6
:1052E00008330BB1002010BDD4F8EC0203685B6CEE
:1052F0009847D4F804238242F4D3D4F80013121A46
:105300000144C4F80013C4F80423A2B9022384F8AA
:105310000C3394F80A334BB1236884F80A239B6E4C
:1053200004F53D71204698470120DCE70121204625
:10533000FFF7ACFFF8E7D4F8EC02D4F82043036899
:10534000A2421B6C28BF22469847EDE7036813B5BD
:105350000446DB6F984794F81C33012B06D80023D2
:105360000F4900931A460F4802F02CF994F80C33B9
:1053700023B100230C4900931A46F4E794F80B3349
:10538000032B0BD02046FFF7A5FF38B9D4F8EC0269
:105390000368DB6C02B0BDE81040184702B010BDD6
:1053A000A52702000E011580CD27020038B503683D
:1053B0000446DB6F984794F80833012B37D1D4F8B3
:1053C000045325B994F8093353B384F80953D4F836
:1053D0002033D4F8EC02D4F800139D4228BF1D46B8
:1053E00003682A469B6C9847D4F800332B44C4F8D2
:1053F0000033D4F804335B1BC4F8043383B994F846
:1054000009236AB9022384F80C3394F80A334BB1A8
:10541000236884F80A239B6E04F53D712046984763
:10542000012038BD01212046FFF730FFF8E70020BA
:10543000F7E70000036813B50446DB6F984794F85C
:105440001C33012B06D800230B490C4800931A4645
:1054500002F0B8F894F80B33032B0BD02046FFF77B
:10546000A5FF38B9D4F8EC020368DB6C02B0BDE8E4
:105470001040184702B010BDA52702000E0115808C
:10548000036870B504465B6F0D46984794F80C337B
:10549000032B05D009490A484FF4C37201F078FE86
:1054A000084BC4F824330023C4F82833236884F855
:1054B000105320469B6FBDE87040184741270200FB
:1054C000172802005762010010B503680446DB6F1D
:1054D0009847012004F21D3384F80803C4F8003310
:1054E000C4F8040310BD036810B50446DB6F984789
:1054F00094F81C33042B01BFB4F82E33A4F8FA320D
:10550000012004F54C7303BF84F80803C4F800338A
:10551000C4F80403002010BD036810B5DB6F044617
:105520009847042384F80C33236894F8F8221B6FFF
:10553000B4F8FA1220469847012010BD036870B5F0
:1055400004465B6F0D46984794F80C33042B05D046
:1055500009490A484FF4EB7201F01AFE084BC4F8EF
:1055600024330023C4F82833236884F810532046DA
:105570009B6FBDE870401847412702004328020096
:1055800031580100036810B50446DB6F984794F862
:105590001C33042B02D0B4F8FA3233B994F8F63243
:1055A000012B25D0022B02D023B300201FE0B4F83A
:1055B000FA2222F08F03002BF7D112F00F030CD048
:1055C000530003F01E0343EAD213023B182202FBEE
:1055D000034393F83030C3F34003074AC4F8002371
:1055E000138001200223C4F8043384F8080310BD9B
:1055F0000023F2E70123F0E7C4A3002010B50368FD
:10560000044690B0DB6F9847D4F8EC02D4F820231E
:1056100003686946DB6B984704F53D72694620468E
:10562000FFF71FFE0023C4F80833C4E9C033012389
:1056300084F80C33236811465B6E984710B010BD98
:10564000036813B50446DB6F984794F81C33012BAD
:1056500006D800230A490B4800931A4601F0B2FF0E
:1056600094F80C23012384F82C332AB9204602B085
:10567000BDE81040FFF7C2BF84F82D3302B010BD63
:10568000A52702000E0115802DE9F0411D46036893
:1056900004465B6F0F461646984794F80C33012B6F
:1056A00005D00B490B4840F2BA2201F071FD0A4BBC
:1056B000C4F824330023C4F82833236884F8107313
:1056C000C4E9C56520469B6FBDE8F041184700BF9F
:1056D000412702006B280200CB600100036870B50F
:1056E0000446DB6F9847B4F8FC12A1B394F8F43287
:1056F00094F80823012B16D1012A0DD1D4F80433D4
:105700008B4235D9C4F80413022384F80B332046A6
:10571000BDE87040FFF74ABED4F8EC020368DB6CCA
:10572000BDE870401847D4F8EC02002AF6D1D4F84E
:1057300004338B42F2D10168012284F80B23D4F8A0
:1057400020230D6CD4F800139A4228BF1A462B462A
:10575000BDE870401847D4F8EC02D4F8042303687D
:10576000002ADCD1032184F80B139B6C1146EFE770
:10577000CAD2D4F82013B3FBF1F001FB1033002B95
:10578000C2D184F80923BFE710B503680446DB6F74
:105790009847002384F82D33032384F80B3310BD7E
:1057A000036810B5DB6F04469847002284F80C2389
:1057B00094F82D2394F8103322B12046BDE8104010
:1057C000FFF7E2BF33B9D4F8EC020368BDE810403C
:1057D000DB6C184794F80B33012B0AD1D4F8EC0298
:1057E000032384F80B3303689B6CBDE8104011461B
:1057F0001847022B07D1D4F8EC02032384F80B33AB
:1058000003681B6CF1E710BD036810B5DB6F04463D
:105810009847002384F82C3394F80C3323B920469E
:10582000BDE81040FFF7B0BF012384F82D3310BD51
:10583000036810B5DB6F04469847002284F80C23F8
:1058400094F82D2394F8103322B12046BDE810407F
:10585000FFF79ABF63B1B4F8FA32A4F82E33B4F864
:10586000F83284F830332046BDE81040FFF736BFE9
:10587000D4F8EC020368BDE81040DB6C18470368FD
:1058800010B504465B6F984794F8F03283B9D4F8AA
:10589000EC02036821469B689847D4F8EC02036841
:1058A00040219B6B98470123C4F8200384F8F03211
:1058B000236820469B6FBDE81040184738B5036841
:1058C00004465B6F984794F81C53236820469B6FEF
:1058D000EDB298472B1F5842584138BD036810B5A8
:1058E0005B6F044698472046FFF7C9FF94F8F132F2
:1058F0003BB9D4F8EC0203685B699847012384F84C
:10590000F132236820469B6FBDE810401847000025
:105910002DE9F04F904685B002680391526F0293D3
:10592000DDF8389005469047039911F0700F03D1C8
:1059300011F00F0F029B06D100232B492B48009337
:105940001A4601F03FFE95F8F2723FB92B682846DF
:105950009B6F9847384605B0BDE8F08F4C0004F0C7
:105960001E0444EAD114A61E4FF0180B0BFB065A76
:105970009AF83020D20705D51D491E484FF48E6293
:1059800001F006FCB8F5806F04D919491A4840F2B5
:105990007142F5E7D5F8EC020268176D4246B84748
:1059A00007460028D2D0013C0BFB045404344C457C
:1059B0000BD02046FAF798FCD9F80C30CAF82830FA
:1059C0001BB15B68494620469847182303FB0656DF
:1059D00096F83030A6F82C8043F0010386F830307A
:1059E000002386F83130B1E75B27020004011580FF
:1059F000412702008E280200B0280200D0F8EC02F5
:105A000003685B6B18470000F8B50F461949044658
:105A100040F81C1B0025064604F53B71F56018365E
:105A20008E42FBD1E380BDF818302381A280002193
:105A30004FF4347208F064FE2822002104F53D7012
:105A400008F05EFEC4E9C855C4E9CA55012384F8CC
:105A5000305384F81D53C4F8EC72A4F8F05284F863
:105A6000F252C4F8345384F81C3384F81E53204691
:105A7000F8BD00BF7C29020038B503685B6F0D4696
:105A8000044698472B071FBF6B0003F01E0343EA31
:105A9000D513023B1BBF182202FB0343D4F820534B
:105AA0009D8D236820469B6F9847284638BD00008F
:105AB0000368F7B55B6F0E460546984736F08F07CB
:105AC00001D1320706D100231749184800931A461E
:105AD00001F078FD740004F01E0444EAD614182383
