:020000040000FA
:100000000C9435000C945D000C945D000C945D0024
:100010000C945D000C945D000C945D000C945D00EC
:100020000C945D000C945D000C945D000C945D00DC
:100030000C945D000C945D000C945D000C945D00CC
:100040000C949F020C945D000C940F030C94E90235
:100050000C945D000C945D000C945D000C945D00AC
:100060000C945D000C945D00720511241FBECFEF4F
:10007000D8E0DEBFCDBF21E0AEE4B1E001C01D920B
:10008000A83FB207E1F711E0A0E0B1E0E6ECF0E153
:1000900002C005900D92AE34B107D9F710E0C5E368
:1000A000D0E004C02197FE010E945E06C433D10750
:1000B000C9F70E9441030C9461080C940000AF92B0
:1000C000BF92CF92DF92EF92FF920F931F93CF9345
:1000D000DF936C017B018B01040F151FEB015E01A7
:1000E000AE18BF08C017D10759F06991D601ED913C
:1000F000FC910190F081E02DC6010995892B79F7DB
:10010000C501DF91CF911F910F91FF90EF90DF908C
:10011000CF90BF90AF900895FC01538D448D252F53
:1001200030E0842F90E0821B930B541710F0CF9691
:10013000089501970895FC01918D828D981761F0C3
:10014000A28DAE0FBF2FB11D5D968C91928D9F5FDA
:100150009F73928F90E008958FEF9FEF0895FC01B9
:10016000918D828D981731F0828DE80FF11D858D6C
:1001700090E008958FEF9FEF0895FC01918D228DFF
:10018000892F90E0805C9F4F821B91098F73992784
:10019000089587E591E00E94BD0021E0892B09F4D4
:1001A00020E0822F089580E090E0892B29F00E94C2
:1001B000C90081110C9400000895FC01A48DA80FC2
:1001C000B92FB11DA35ABF4F2C91848D90E0019699
:1001D0008F739927848FA689B7892C93A089B189B9
:1001E0008C91837080648C93938D848D981306C05A
:1001F0000288F389E02D80818F7D80830895EF92BE
:10020000FF920F931F93CF93DF93EC0181E0888FD0
:100210009B8D8C8D98131AC0E889F989808185FFA0
:1002200015C09FB7F894EE89FF896083E889F98942
:1002300080818370806480839FBF81E090E0DF9144
:10024000CF911F910F91FF90EF900895F62E0B8D97
:1002500010E00F5F1F4F0F731127E02E8C8D8E1152
:100260000CC00FB607FCFACFE889F989808185FFB9
:10027000F5CFCE010E94DD00F1CFEB8DEC0FFD2F0D
:10028000F11DE35AFF4FF0829FB7F8940B8FEA8974
:10029000FB8980818062CFCFCF93DF93EC01888D83
:1002A0008823B9F0AA89BB89E889F9898C9185FDF1
:1002B00003C0808186FD0DC00FB607FCF7CF8C917F
:1002C00085FFF2CF808185FFEDCFCE010E94DD005A
:1002D000E9CFDF91CF910895FC0101900020E9F76B
:1002E0003197AF01481B590BBC0187E591E00C9495
:1002F0005F00CF93DF93EC0188819981009711F023
:100300000E940007198218821D821C821B821A8299
:10031000DF91CF910895FC0180819181009711F0C8
:100320000C94000708950F931F93CF93DF93EC0174
:1003300088819981009759F02A813B8126173707D8
:1003400030F081E0DF91CF911F910F9108958B01E3
:100350006F5F7F4F0E948907009759F099838883C8
:100360001B830A832C813D81232B59F7FC011082CA
:10037000E8CF80E0E7CFEF92FF920F931F93CF93E8
:10038000DF936115710541F480E0DF91CF911F91FA
:100390000F91FF90EF90089541155105B1F07B0149
:1003A000EC010C811D81040F151FB8010E949301FF
:1003B000882351F3288139818C819D81B701820F77
:1003C000931F0E945A081D830C8381E0DECFEF92B9
:1003D000FF920F931F93CF93DF93EC017B018A0170
:1003E000BA010E94930181110BC0CE010E947901D4
:1003F000CE01DF91CF911F910F91FF90EF90089563
:100400001D830C83B701888199810E945A08F0CF1F
:10041000EF92FF920F931F93CF93DF93CDB7DEB789
:1004200029970FB6F894DEBF0FBECDBF8C01862F83
:10043000F8011182108213821282158214824AE01E
:100440009E012F5F3F4F7901B90190E00E94DB05CB
:10045000F70101900020E9F73197AF014E195F09CC
:10046000B701C8010E94E70129960FB6F894DEBFD4
:100470000FBECDBFDF91CF911F910F91FF90EF90F5
:100480000895AF92BF92CF92DF92EF92FF920F93B7
:100490001F93CF93DF93EC016B015A01790124176D
:1004A000350720F48B2D5901E42EF82E198218827D
:1004B0001B821A821D821C8250E040E069E371E0D9
:1004C000CE010E94E701D60114960D911C91A01651
:1004D000B10628F5E016F10608F48701D601ED9182
:1004E000FC911197E00FF11FF08010826D917C91CB
:1004F0006A0D7B1D61157105F1F0FB010190002073
:10050000E9F73197AF01461B570BCE010E94E70177
:10051000F60180819181080F191FD801FC92CE014C
:10052000DF91CF911F910F91FF90EF90DF90CF90CF
:10053000BF90AF900895CE010E947901E9CF1F923C
:100540000F920FB60F9211242F933F938F939F9387
:10055000AF93BF938091530190915401A0915501A5
:10056000B09156013091520123E0230F2D3758F5F9
:100570000196A11DB11D20935201809353019093C8
:100580005401A0935501B093560180914E01909172
:100590004F01A0915001B09151010196A11DB11DD3
:1005A00080934E0190934F01A0935001B09351015D
:1005B000BF91AF919F918F913F912F910F900FBE5F
:1005C0000F901F90189526E8230F0296A11DB11DCC
:1005D000D2CF1F920F920FB60F9211242F933F93F9
:1005E0004F935F936F937F938F939F93AF93BF933B
:1005F000EF93FF9387E591E00E94DD00FF91EF917B
:10060000BF91AF919F918F917F916F915F914F912A
:100610003F912F910F900FBE0F901F9018951F9232
:100620000F920FB60F9211242F938F939F93EF93F6
:10063000FF93E0916701F09168018081E0916D0185
:10064000F0916E0182FD1BC09081809170018F5FDF
:100650008F7320917101821741F0E0917001F0E0F9
:10066000E95AFE4F958F80937001FF91EF919F9112
:100670008F912F910F900FBE0F901F901895808132
:10068000F4CFCF93DF93CDB7DEB7CA59D1090FB6F8
:10069000F894DEBF0FBECDBF789484B5826084BD70
:1006A00084B5816084BD85B5826085BD85B5816076
:1006B00085BD80916E00816080936E0010928100F4
:1006C00080918100826080938100809181008160AF
:1006D0008093810080918000816080938000809170
:1006E000B10084608093B1008091B00081608093FC
:1006F000B00080917A00846080937A0080917A00C3
:10070000826080937A0080917A00816080937A0081
:1007100080917A00806880937A001092C10089E00D
:10072000E6E0F1E0DE01AA57BF4F01900D928A95F5
:10073000E1F7CB56DF4F19821882C559D040C95610
:10074000DF4F19821882C759D040C756DF4F198230
:100750001882C959D04050E040E069E371E0CE0111
:100760008B569F4F0E94E701F12CE12C8E010F5F09
:100770001F4FE6E8F0E0EC0FFD1FEE0DFF1D61E0FE
:100780002FEFE21AF20AD19039E0E316F10428F4CF
:100790008081D81202C06F5FF3CFCE0181579F4F87
:1007A0000E9408026D2DC8010E940802A7961FAE84
:1007B0001EAEA797A9961FAE1EAEA997AB961FAE09
:1007C0001EAEAB9769817A816115710539F04D8153
:1007D0005E81CE018B599F4F0E94E70141E050E0BE
:1007E00061E271E0CE018B599F4F0E94BB018111E4
:1007F00005C0CE018B599F4F0E947901CD56DF4F26
:1008000048815981C359D040C157DF4F68817981F0
:10081000CF58D040CE018B599F4F0E94BB01811110
:1008200005C0CE018B599F4F0E94790141E050E0F5
:1008300063E271E0CE018B599F4F0E94BB01811191
:1008400005C0CE018B599F4F0E947901AB964EADEA
:100850005FADAB97A7966EAD7FADA797CE018B56D8
:100860009F4F0E94BB01CE018B599F4F0E948B016D
:10087000C8010E948B01CE0181579F4F0E948B01BE
:1008800089E0E816F10408F474CFE0916701F09173
:10089000680182E08083E0916301F091640110823D
:1008A000E0916501F09166018FEC808310926F01F9
:1008B000E0916B01F0916C0186E08083E091690129
:1008C000F0916A01808180618083E0916901F091FB
:1008D0006A01808188608083E0916901F0916A01FA
:1008E000808180688083E0916901F0916A01808154
:1008F0008F7D80831A8219821C821B821E821D8238
:1009000041E150E065E271E0C8010E94E701C7568D
:10091000DF4F48815981C959D040CB56DF4F68819C
:100920007981C559D040C8010E94BB01811103C023
:10093000C8010E9479014D815E8169817A8187E5D4
:1009400091E00E945F0087E391E00E946C01C80182
:100950000E948B01F12CE12CD12CC12CC756DF4F0A
:1009600088819981C959D040C816D90608F06DC050
:10097000CB56DF4FA880B980C559D04045018C0CBB
:100980009D1C6CE270E0C4010E944F08009709F4BE
:100990005CC03C016A187B08EFEF6E167E0609F416
:1009A00054C06AE370E0C4010E944F08009709F444
:1009B00041C09C012A193B0959019501A601BE01BC
:1009C0006B567F4FCE018B599F4F0E944102A796D5
:1009D0008EAD9FADA797C12C009719F00E949F057F
:1009E000C62ECE018B599F4F0E948B01A5014F5FF0
:1009F0005F4F9301BE016B567F4FCE018B599F4FC6
:100A00000E944102A7968EAD9FADA797D12C00976B
:100A100019F00E949F05D62ECE018B599F4F0E9440
:100A20008B01F801EE0DFF1D80E08D1538F4C192A9
:100A30008F5FFBCFAA24AA94BA2CBFCFED0CF11C78
:100A400063013FEFC31AD30A89CF8AE391E00E9482
:100A50006C0158019AE0492E512C612C712CC50172
:100A6000801B910B8E159F0560F5F50121915F01AB
:100A700030E050E040E0CB57DF4F1882C558D040FF
:100A800085E6C82ED12CCC0EDD1EF0E2CF0ED11C97
:100A9000CA01B901A30192010E943C06605DF60102
:100AA00062936F01211531054105510589F7309792
:100AB00019F0CF010E946C0185E391E00E946C0166
:100AC000CECFCE018B569F4F0E948B0100E010E0ED
:100AD00001151105E9F30E94C9008823C9F30E949A
:100AE0000000F6CFE7E5F1E01382128288EE93E092
:100AF000A0E0B0E084839583A683B78383E191E08F
:100B00009183808385EC90E09587848784EC90E0E6
:100B10009787868780EC90E0918B808B81EC90E0CA
:100B2000938B828B82EC90E0958B848B86EC90E0AB
:100B3000978B868B118E128E138E148E08951F93B1
:100B4000FC0199278827BC01E89411911032E9F340
:100B5000193010F01E30C8F31B3251F01D3249F429
:100B6000689406C00E94C605610F711D811D911D0C
:100B7000119110531A30B0F33EF490958095709512
:100B800061957F4F8F4F9F4F1F910895592F482F89
:100B9000372F262F660F771F881F991F660F771F25
:100BA000881F991F620F731F841F951F660F771F81
:100BB000881F991F0895BB27FB015527AA27880F77
:100BC000991FAA1FA41710F0A41B83955051B9F7C1
:100BD000A05DAA3308F0A95DA193009779F7B11140
:100BE000B1931192CB010C94F505DC01FC01672F48
:100BF00071917723E1F7329704C07C916D937083F4
:100C00006291AE17BF07C8F308952F923F924F929B
:100C10005F926F927F928F929F92AF92BF92CF928C
:100C2000DF92EF92FF920F931F93CF93DF93CDB795
:100C3000DEB7CA1BDB0B0FB6F894DEBF0FBECDBF0D
:100C400009942A88398848885F846E847D848C84DE
:100C50009B84AA84B984C884DF80EE80FD800C81E7
:100C60001B81AA81B981CE0FD11D0FB6F894DEBFCA
:100C70000FBECDBFED010895A1E21A2EAA1BBB1B2A
:100C8000FD010DC0AA1FBB1FEE1FFF1FA217B30758
:100C9000E407F50720F0A21BB30BE40BF50B661F6E
:100CA000771F881F991F1A9469F760957095809532
:100CB00090959B01AC01BD01CF010895EE0FFF1F80
:100CC0000590F491E02D09940F931F93CF93DF9338
:100CD0008230910510F482E090E0E091F601F0910D
:100CE000F70130E020E0B0E0A0E0309799F4211562
:100CF000310509F44AC0281B390B24303105D8F5D9
:100D00008A819B816115710589F1FB01938382833F
:100D1000FE0111C04081518102811381481759079A
:100D2000E0F04817590799F4109761F012960C9368
:100D3000129713961C933296CF01DF91CF911F919A
:100D40000F9108950093F6011093F701F4CF211548
:100D5000310551F04217530738F0A901DB019A0120
:100D6000BD01DF01F801C1CFEF01F9CF9093F70189
:100D70008093F601CDCFFE01E20FF31F8193919393
:100D80002250310939832883D7CF2091F401309143
:100D9000F501232B41F4209102013091030130939E
:100DA000F5012093F40120910001309101012115FA
:100DB000310541F42DB73EB7409104015091050132
:100DC000241B350BE091F401F091F501E217F307D4
:100DD000A0F42E1B3F0B2817390778F0AC014E5FAB
:100DE0005F4F2417350748F04E0F5F1F5093F501F2
:100DF0004093F401819391939FCFF0E0E0E09CCF8A
:100E0000CF93DF930097E9F0FC01329713821282AF
:100E1000A091F601B091F701ED0130E020E01097CC
:100E2000A1F420813181820F931F2091F401309130
:100E3000F5012817390709F061C0F093F501E09337
:100E4000F401DF91CF910895EA01CE17DF07E8F5AD
:100E50004A815B819E0141155105B1F7E901FB8390
:100E6000EA8349915991C40FD51FEC17FD0761F42E
:100E7000808191810296840F951FE901998388836F
:100E8000828193819B838A83F0E0E0E012968D91CA
:100E90009C9113970097B9F52D913C911197CD0135
:100EA0000296820F931F2091F4013091F5012817CB
:100EB000390739F6309751F51092F7011092F60183
:100EC000B093F501A093F401BCCFD383C2834081DA
:100ED0005181840F951FC817D90761F44E5F5F4F8A
:100EE00088819981480F591F518340838A819B8152
:100EF000938382832115310509F0B0CFF093F70178
:100F0000E093F6019ECFFD01DC01C0CF1382128277
:100F1000D7CFB0E0A0E0EFE8F7E00C9407068C0133
:100F2000009751F4CB010E9464068C01C801CDB733
:100F3000DEB7E0E10C942306FC01E60FF71F9C01ED
:100F400022503109E217F30708F49DC0D901CD9171
:100F5000DC911197C617D70798F0C530D10530F34B
:100F6000CE0104978617970708F3C61BD70B229765
:100F7000C193D1936D937C93CF010E940007D6CF8C
:100F80005B01AC1ABD0A4C018C0E9D1EA091F601AE
:100F9000B091F701512C412CF12CE12C109731F537
:100FA0008091F4019091F5018815990509F05CC0D4
:100FB0004616570608F058C0809100019091010133
:100FC000009741F48DB79EB74091040150910501FF
:100FD000841B950BE817F90708F055C0F093F5014D
:100FE000E093F401F90171836083A0CF8D919C910E
:100FF000119712966C90129713967C901397A815E0
:10100000B90559F56C0142E0C40ED11CCA14DB04C9
:1010100020F1AC014A195B09DA011296159780F0AC
:101020006282738251834083D9016D937C93E11472
:10103000F10471F0D7011396FC93EE93129776CFDB
:1010400022968C0F9D1FF90191838083F301EFCFCE
:10105000F093F701E093F60169CF4816590608F4BA
:101060002C017D01D3019ACFCB010E9464067C0143
:10107000009749F0AE01B8010E944608C8010E94DD
:101080000007870153CF10E000E050CFFB01DC01E7
:1010900002C001900D9241505040D8F70895FC01D4
:1010A0008191861721F08823D9F7992708953197E0
:1010B000CF010895FB01DC0101900D920020E1F7C2
:1010C0000895F894FFCF0000F801800001010102AB
:1010D000020303030300000000FF005F008C004CCC
:1010E00001BD009B00AF003A002C00436F6D707291
:1010F000657373656420446174613A20000D0A00D1
:101100004465636F6D7072657373656420446174C8
:04111000613A200020
:107E0000112484B714BE81FFF0D085E080938100F7
:107E100082E08093C00088E18093C10086E0809377
:107E2000C20080E18093C4008EE0C9D0259A86E02C
:107E300020E33CEF91E0309385002093840096BBD3
:107E4000B09BFECF1D9AA8958150A9F7CC24DD24C4
:107E500088248394B5E0AB2EA1E19A2EF3E0BF2EE7
:107E6000A2D0813461F49FD0082FAFD0023811F036
:107E7000013811F484E001C083E08DD089C08234E0
:107E800011F484E103C0853419F485E0A6D080C0E4
:107E9000853579F488D0E82EFF2485D0082F10E0AE
:107EA000102F00270E291F29000F111F8ED06801E7
:107EB0006FC0863521F484E090D080E0DECF843638
:107EC00009F040C070D06FD0082F6DD080E0C81688
:107ED00080E7D80618F4F601B7BEE895C0E0D1E017
:107EE00062D089930C17E1F7F0E0CF16F0E7DF06D8
:107EF00018F0F601B7BEE89568D007B600FCFDCFD4
:107F0000A601A0E0B1E02C9130E011968C91119780
:107F100090E0982F8827822B932B1296FA010C0160
:107F200087BEE89511244E5F5F4FF1E0A038BF0790
:107F300051F7F601A7BEE89507B600FCFDCF97BE46
:107F4000E89526C08437B1F42ED02DD0F82E2BD052
:107F50003CD0F601EF2C8F010F5F1F4F84911BD097
:107F6000EA94F801C1F70894C11CD11CFA94CF0C13
:107F7000D11C0EC0853739F428D08EE10CD085E9AC
:107F80000AD08FE07ACF813511F488E018D01DD067
:107F900080E101D065CF982F8091C00085FFFCCF94
:107FA0009093C60008958091C00087FFFCCF809118
:107FB000C00084FD01C0A8958091C6000895E0E648
:107FC000F0E098E1908380830895EDDF803219F02E
:107FD00088E0F5DFFFCF84E1DECF1F93182FE3DFCA
:107FE0001150E9F7F2DF1F91089580E0E8DFEE27F6
:047FF000FF270994CA
:027FFE00040479
:00000001FF
